{
  "contractName": "Dron",
  "abi": [
    {
      "inputs": [],
      "stateMutability": "nonpayable",
      "type": "constructor"
    },
    {
      "anonymous": false,
      "inputs": [
        {
          "indexed": true,
          "internalType": "address",
          "name": "owner",
          "type": "address"
        },
        {
          "indexed": true,
          "internalType": "address",
          "name": "approved",
          "type": "address"
        },
        {
          "indexed": true,
          "internalType": "uint256",
          "name": "tokenId",
          "type": "uint256"
        }
      ],
      "name": "Approval",
      "type": "event"
    },
    {
      "anonymous": false,
      "inputs": [
        {
          "indexed": true,
          "internalType": "address",
          "name": "owner",
          "type": "address"
        },
        {
          "indexed": true,
          "internalType": "address",
          "name": "operator",
          "type": "address"
        },
        {
          "indexed": false,
          "internalType": "bool",
          "name": "approved",
          "type": "bool"
        }
      ],
      "name": "ApprovalForAll",
      "type": "event"
    },
    {
      "anonymous": false,
      "inputs": [
        {
          "indexed": false,
          "internalType": "address",
          "name": "owner",
          "type": "address"
        },
        {
          "indexed": false,
          "internalType": "uint256",
          "name": "dronId",
          "type": "uint256"
        }
      ],
      "name": "NewDronAdded",
      "type": "event"
    },
    {
      "anonymous": false,
      "inputs": [
        {
          "indexed": true,
          "internalType": "address",
          "name": "from",
          "type": "address"
        },
        {
          "indexed": true,
          "internalType": "address",
          "name": "to",
          "type": "address"
        },
        {
          "indexed": true,
          "internalType": "uint256",
          "name": "tokenId",
          "type": "uint256"
        }
      ],
      "name": "Transfer",
      "type": "event"
    },
    {
      "inputs": [
        {
          "internalType": "address",
          "name": "to",
          "type": "address"
        },
        {
          "internalType": "uint256",
          "name": "tokenId",
          "type": "uint256"
        }
      ],
      "name": "approve",
      "outputs": [],
      "stateMutability": "nonpayable",
      "type": "function"
    },
    {
      "inputs": [
        {
          "internalType": "address",
          "name": "owner",
          "type": "address"
        }
      ],
      "name": "balanceOf",
      "outputs": [
        {
          "internalType": "uint256",
          "name": "",
          "type": "uint256"
        }
      ],
      "stateMutability": "view",
      "type": "function",
      "constant": true
    },
    {
      "inputs": [
        {
          "internalType": "uint256",
          "name": "tokenId",
          "type": "uint256"
        }
      ],
      "name": "getApproved",
      "outputs": [
        {
          "internalType": "address",
          "name": "",
          "type": "address"
        }
      ],
      "stateMutability": "view",
      "type": "function",
      "constant": true
    },
    {
      "inputs": [
        {
          "internalType": "address",
          "name": "owner",
          "type": "address"
        },
        {
          "internalType": "address",
          "name": "operator",
          "type": "address"
        }
      ],
      "name": "isApprovedForAll",
      "outputs": [
        {
          "internalType": "bool",
          "name": "",
          "type": "bool"
        }
      ],
      "stateMutability": "view",
      "type": "function",
      "constant": true
    },
    {
      "inputs": [],
      "name": "name",
      "outputs": [
        {
          "internalType": "string",
          "name": "",
          "type": "string"
        }
      ],
      "stateMutability": "view",
      "type": "function",
      "constant": true
    },
    {
      "inputs": [
        {
          "internalType": "uint256",
          "name": "tokenId",
          "type": "uint256"
        }
      ],
      "name": "ownerOf",
      "outputs": [
        {
          "internalType": "address",
          "name": "",
          "type": "address"
        }
      ],
      "stateMutability": "view",
      "type": "function",
      "constant": true
    },
    {
      "inputs": [
        {
          "internalType": "address",
          "name": "from",
          "type": "address"
        },
        {
          "internalType": "address",
          "name": "to",
          "type": "address"
        },
        {
          "internalType": "uint256",
          "name": "tokenId",
          "type": "uint256"
        }
      ],
      "name": "safeTransferFrom",
      "outputs": [],
      "stateMutability": "nonpayable",
      "type": "function"
    },
    {
      "inputs": [
        {
          "internalType": "address",
          "name": "from",
          "type": "address"
        },
        {
          "internalType": "address",
          "name": "to",
          "type": "address"
        },
        {
          "internalType": "uint256",
          "name": "tokenId",
          "type": "uint256"
        },
        {
          "internalType": "bytes",
          "name": "data",
          "type": "bytes"
        }
      ],
      "name": "safeTransferFrom",
      "outputs": [],
      "stateMutability": "nonpayable",
      "type": "function"
    },
    {
      "inputs": [
        {
          "internalType": "address",
          "name": "operator",
          "type": "address"
        },
        {
          "internalType": "bool",
          "name": "approved",
          "type": "bool"
        }
      ],
      "name": "setApprovalForAll",
      "outputs": [],
      "stateMutability": "nonpayable",
      "type": "function"
    },
    {
      "inputs": [
        {
          "internalType": "bytes4",
          "name": "interfaceId",
          "type": "bytes4"
        }
      ],
      "name": "supportsInterface",
      "outputs": [
        {
          "internalType": "bool",
          "name": "",
          "type": "bool"
        }
      ],
      "stateMutability": "view",
      "type": "function",
      "constant": true
    },
    {
      "inputs": [],
      "name": "symbol",
      "outputs": [
        {
          "internalType": "string",
          "name": "",
          "type": "string"
        }
      ],
      "stateMutability": "view",
      "type": "function",
      "constant": true
    },
    {
      "inputs": [
        {
          "internalType": "uint256",
          "name": "index",
          "type": "uint256"
        }
      ],
      "name": "tokenByIndex",
      "outputs": [
        {
          "internalType": "uint256",
          "name": "",
          "type": "uint256"
        }
      ],
      "stateMutability": "view",
      "type": "function",
      "constant": true
    },
    {
      "inputs": [
        {
          "internalType": "address",
          "name": "owner",
          "type": "address"
        },
        {
          "internalType": "uint256",
          "name": "index",
          "type": "uint256"
        }
      ],
      "name": "tokenOfOwnerByIndex",
      "outputs": [
        {
          "internalType": "uint256",
          "name": "",
          "type": "uint256"
        }
      ],
      "stateMutability": "view",
      "type": "function",
      "constant": true
    },
    {
      "inputs": [
        {
          "internalType": "uint256",
          "name": "tokenId",
          "type": "uint256"
        }
      ],
      "name": "tokenURI",
      "outputs": [
        {
          "internalType": "string",
          "name": "",
          "type": "string"
        }
      ],
      "stateMutability": "view",
      "type": "function",
      "constant": true
    },
    {
      "inputs": [],
      "name": "totalSupply",
      "outputs": [
        {
          "internalType": "uint256",
          "name": "",
          "type": "uint256"
        }
      ],
      "stateMutability": "view",
      "type": "function",
      "constant": true
    },
    {
      "inputs": [
        {
          "internalType": "address",
          "name": "from",
          "type": "address"
        },
        {
          "internalType": "address",
          "name": "to",
          "type": "address"
        },
        {
          "internalType": "uint256",
          "name": "tokenId",
          "type": "uint256"
        }
      ],
      "name": "transferFrom",
      "outputs": [],
      "stateMutability": "nonpayable",
      "type": "function"
    },
    {
      "inputs": [
        {
          "internalType": "string",
          "name": "name_",
          "type": "string"
        },
        {
          "internalType": "uint256",
          "name": "maxHeight_",
          "type": "uint256"
        },
        {
          "internalType": "uint256",
          "name": "minHeight_",
          "type": "uint256"
        },
        {
          "internalType": "uint256",
          "name": "price_",
          "type": "uint256"
        },
        {
          "internalType": "enum IPesticides.Pesticides",
          "name": "pesticide_",
          "type": "uint8"
        }
      ],
      "name": "addDron",
      "outputs": [],
      "stateMutability": "nonpayable",
      "type": "function"
    },
    {
      "inputs": [
        {
          "internalType": "uint256",
          "name": "dronId_",
          "type": "uint256"
        }
      ],
      "name": "getDronOwner",
      "outputs": [
        {
          "internalType": "address",
          "name": "",
          "type": "address"
        }
      ],
      "stateMutability": "view",
      "type": "function",
      "constant": true
    },
    {
      "inputs": [
        {
          "internalType": "uint256",
          "name": "dronId_",
          "type": "uint256"
        }
      ],
      "name": "checkDronExist",
      "outputs": [
        {
          "internalType": "bool",
          "name": "",
          "type": "bool"
        }
      ],
      "stateMutability": "view",
      "type": "function",
      "constant": true
    },
    {
      "inputs": [
        {
          "internalType": "uint256",
          "name": "dronId_",
          "type": "uint256"
        }
      ],
      "name": "getDronWorkPrice",
      "outputs": [
        {
          "internalType": "uint256",
          "name": "",
          "type": "uint256"
        }
      ],
      "stateMutability": "view",
      "type": "function",
      "constant": true
    },
    {
      "inputs": [
        {
          "internalType": "uint256",
          "name": "dronId_",
          "type": "uint256"
        }
      ],
      "name": "getDronInfo",
      "outputs": [
        {
          "components": [
            {
              "internalType": "uint256",
              "name": "id",
              "type": "uint256"
            },
            {
              "internalType": "string",
              "name": "name",
              "type": "string"
            },
            {
              "internalType": "uint256",
              "name": "minimumFlightHeight",
              "type": "uint256"
            },
            {
              "internalType": "uint256",
              "name": "maximumFlightHeight",
              "type": "uint256"
            },
            {
              "internalType": "uint256",
              "name": "price",
              "type": "uint256"
            },
            {
              "internalType": "enum IPesticides.Pesticides",
              "name": "pesticide",
              "type": "uint8"
            }
          ],
          "internalType": "struct IDron.DronInfo",
          "name": "",
          "type": "tuple"
        }
      ],
      "stateMutability": "view",
      "type": "function",
      "constant": true
    }
  ],
  "bytecode": "0x60806040523480156200001157600080fd5b50604080518082018252600480825263223937b760e11b60208084018290528451808601909552918452908301529060006200004e83826200012b565b5060016200005d82826200012b565b50505062000077600a6200007d60201b62000cd11760201c565b620001f7565b80546001019055565b634e487b7160e01b600052604160045260246000fd5b600181811c90821680620000b157607f821691505b602082108103620000d257634e487b7160e01b600052602260045260246000fd5b50919050565b601f8211156200012657600081815260208120601f850160051c81016020861015620001015750805b601f850160051c820191505b8181101562000122578281556001016200010d565b5050505b505050565b81516001600160401b0381111562000147576200014762000086565b6200015f816200015884546200009c565b84620000d8565b602080601f8311600181146200019757600084156200017e5750858301515b600019600386901b1c1916600185901b17855562000122565b600085815260208120601f198616915b82811015620001c857888601518255948401946001909101908401620001a7565b5085821015620001e75787850151600019600388901b60f8161c191681555b5050505050600190811b01905550565b611e2780620002076000396000f3fe608060405234801561001057600080fd5b50600436106101075760003560e01c806301ffc9a71461010c57806306fdde0314610134578063081812fc14610149578063095ea7b31461017457806318160ddd1461018957806323b872dd1461019b5780632f745c59146101ae57806342842e0e146101c15780634f6ccce7146101d45780636352211e146101e757806370a08231146101fa5780637dd7ac151461020d57806395d89b4114610220578063987c065114610228578063a22cb4651461023b578063b88d4fde1461024e578063c564dde014610261578063c87b56dd14610274578063cebcc91514610287578063e985e9c5146102aa578063ffcce328146102bd575b600080fd5b61011f61011a36600461169f565b6102dd565b60405190151581526020015b60405180910390f35b61013c610308565b60405161012b9190611714565b61015c610157366004611727565b61039a565b6040516001600160a01b03909116815260200161012b565b61018761018236600461175c565b6103c1565b005b6008545b60405190815260200161012b565b6101876101a9366004611786565b6104db565b61018d6101bc36600461175c565b61050c565b6101876101cf366004611786565b6105a2565b61018d6101e2366004611727565b6105bd565b61015c6101f5366004611727565b610650565b61018d6102083660046117c2565b610685565b61018761021b366004611868565b61070b565b61013c610942565b61011f610236366004611727565b610951565b6101876102493660046118ee565b610ac5565b61018761025c36600461192a565b610ad4565b61015c61026f366004611727565b610b0c565b61013c610282366004611727565b610b17565b61018d610295366004611727565b6000908152600b602052604090206004015490565b61011f6102b83660046119a5565b610b8b565b6102d06102cb366004611727565b610bb9565b60405161012b91906119ee565b60006001600160e01b0319821663780e9d6360e01b1480610302575061030282610cda565b92915050565b60606000805461031790611a67565b80601f016020809104026020016040519081016040528092919081815260200182805461034390611a67565b80156103905780601f1061036557610100808354040283529160200191610390565b820191906000526020600020905b81548152906001019060200180831161037357829003601f168201915b5050505050905090565b60006103a582610d2a565b506000908152600460205260409020546001600160a01b031690565b60006103cc82610650565b9050806001600160a01b0316836001600160a01b03160361043e5760405162461bcd60e51b815260206004820152602160248201527f4552433732313a20617070726f76616c20746f2063757272656e74206f776e656044820152603960f91b60648201526084015b60405180910390fd5b336001600160a01b038216148061045a575061045a8133610b8b565b6104cc5760405162461bcd60e51b815260206004820152603e60248201527f4552433732313a20617070726f76652063616c6c6572206973206e6f7420746f60448201527f6b656e206f776e6572206e6f7220617070726f76656420666f7220616c6c00006064820152608401610435565b6104d68383610d52565b505050565b6104e53382610dc0565b6105015760405162461bcd60e51b815260040161043590611aa1565b6104d6838383610e1f565b600061051783610685565b82106105795760405162461bcd60e51b815260206004820152602b60248201527f455243373231456e756d657261626c653a206f776e657220696e646578206f7560448201526a74206f6620626f756e647360a81b6064820152608401610435565b506001600160a01b03919091166000908152600660209081526040808320938352929052205490565b6104d683838360405180602001604052806000815250610ad4565b60006105c860085490565b821061062b5760405162461bcd60e51b815260206004820152602c60248201527f455243373231456e756d657261626c653a20676c6f62616c20696e646578206f60448201526b7574206f6620626f756e647360a01b6064820152608401610435565b6008828154811061063e5761063e611aef565b90600052602060002001549050919050565b6000818152600260205260408120546001600160a01b0316806103025760405162461bcd60e51b815260040161043590611b05565b60006001600160a01b0382166106ef5760405162461bcd60e51b815260206004820152602960248201527f4552433732313a2061646472657373207a65726f206973206e6f7420612076616044820152683634b21037bbb732b960b91b6064820152608401610435565b506001600160a01b031660009081526003602052604090205490565b60008551116107545760405162461bcd60e51b81526020600482015260156024820152744552524f523a204e616d6520697320626c616e6b2160581b6044820152606401610435565b6000831161079d5760405162461bcd60e51b81526020600482015260166024820152754552524f523a204d696e20666c69676874203d20302160501b6044820152606401610435565b8284116107e85760405162461bcd60e51b81526020600482015260196024820152784552524f523a204d696e20666c69676874203c3d206d61782160381b6044820152606401610435565b6000821161082c5760405162461bcd60e51b81526020600482015260116024820152704552524f523a205072696365203d20302160781b6044820152606401610435565b6000610837600a5490565b90506108433382610fb4565b6040518060c0016040528082815260200187815260200185815260200186815260200184815260200183600481111561087e5761087e6119d8565b90526000828152600b60209081526040909120825181559082015160018201906108a89082611b85565b5060408201518160020155606082015181600301556080820151816004015560a08201518160050160006101000a81548160ff021916908360048111156108f1576108f16119d8565b021790555050600a805460010190555060408051338152602081018390527f26c50b641a9fef1b7e0d7ad59ba65e873eba1494ca86ce6d3053e83aa3bc7a21910160405180910390a1505050505050565b60606001805461031790611a67565b600080821180156109635750600a5482105b6109af5760405162461bcd60e51b815260206004820152601e60248201527f4552524f523a204964203d2030206f72203e206d617820636f756e74657200006044820152606401610435565b6000600b60008481526020019081526020016000206040518060c0016040529081600082015481526020016001820180546109e990611a67565b80601f0160208091040260200160405190810160405280929190818152602001828054610a1590611a67565b8015610a625780601f10610a3757610100808354040283529160200191610a62565b820191906000526020600020905b815481529060010190602001808311610a4557829003601f168201915b505050918352505060028201546020820152600382015460408201526004808301546060830152600583015460809092019160ff1690811115610aa757610aa76119d8565b6004811115610ab857610ab86119d8565b9052505190921492915050565b610ad03383836110e0565b5050565b610ade3383610dc0565b610afa5760405162461bcd60e51b815260040161043590611aa1565b610b06848484846111aa565b50505050565b600061030282610650565b6060610b2282610d2a565b6000610b3960408051602081019091526000815290565b90506000815111610b595760405180602001604052806000815250610b84565b80610b63846111dd565b604051602001610b74929190611c44565b6040516020818303038152906040525b9392505050565b6001600160a01b03918216600090815260056020908152604080832093909416825291909152205460ff1690565b610bc1611643565b600b60008381526020019081526020016000206040518060c001604052908160008201548152602001600182018054610bf990611a67565b80601f0160208091040260200160405190810160405280929190818152602001828054610c2590611a67565b8015610c725780601f10610c4757610100808354040283529160200191610c72565b820191906000526020600020905b815481529060010190602001808311610c5557829003601f168201915b505050918352505060028201546020820152600382015460408201526004808301546060830152600583015460809092019160ff1690811115610cb757610cb76119d8565b6004811115610cc857610cc86119d8565b90525092915050565b80546001019055565b60006001600160e01b031982166380ac58cd60e01b1480610d0b57506001600160e01b03198216635b5e139f60e01b145b8061030257506301ffc9a760e01b6001600160e01b0319831614610302565b610d33816112dd565b610d4f5760405162461bcd60e51b815260040161043590611b05565b50565b600081815260046020526040902080546001600160a01b0319166001600160a01b0384169081179091558190610d8782610650565b6001600160a01b03167f8c5be1e5ebec7d5bd14f71427d1e84f3dd0314c0f7b2291e5b200ac8c7c3b92560405160405180910390a45050565b600080610dcc83610650565b9050806001600160a01b0316846001600160a01b03161480610df35750610df38185610b8b565b80610e175750836001600160a01b0316610e0c8461039a565b6001600160a01b0316145b949350505050565b826001600160a01b0316610e3282610650565b6001600160a01b031614610e965760405162461bcd60e51b815260206004820152602560248201527f4552433732313a207472616e736665722066726f6d20696e636f72726563742060448201526437bbb732b960d91b6064820152608401610435565b6001600160a01b038216610ef85760405162461bcd60e51b8152602060048201526024808201527f4552433732313a207472616e7366657220746f20746865207a65726f206164646044820152637265737360e01b6064820152608401610435565b610f038383836112fa565b610f0e600082610d52565b6001600160a01b0383166000908152600360205260408120805460019290610f37908490611c89565b90915550506001600160a01b0382166000908152600360205260408120805460019290610f65908490611ca0565b909155505060008181526002602052604080822080546001600160a01b0319166001600160a01b038681169182179092559151849391871691600080516020611dd283398151915291a4505050565b6001600160a01b03821661100a5760405162461bcd60e51b815260206004820181905260248201527f4552433732313a206d696e7420746f20746865207a65726f20616464726573736044820152606401610435565b611013816112dd565b1561105f5760405162461bcd60e51b815260206004820152601c60248201527b115490cdcc8c4e881d1bdad95b88185b1c9958591e481b5a5b9d195960221b6044820152606401610435565b61106b600083836112fa565b6001600160a01b0382166000908152600360205260408120805460019290611094908490611ca0565b909155505060008181526002602052604080822080546001600160a01b0319166001600160a01b0386169081179091559051839290600080516020611dd2833981519152908290a45050565b816001600160a01b0316836001600160a01b03160361113d5760405162461bcd60e51b815260206004820152601960248201527822a9219b99189d1030b8383937bb32903a379031b0b63632b960391b6044820152606401610435565b6001600160a01b03838116600081815260056020908152604080832094871680845294825291829020805460ff191686151590811790915591519182527f17307eab39ab6107e8899845ad3d59bd9653f200f220920489ca2b5937696c31910160405180910390a3505050565b6111b5848484610e1f565b6111c1848484846113b2565b610b065760405162461bcd60e51b815260040161043590611cb8565b6060816000036112045750506040805180820190915260018152600360fc1b602082015290565b8160005b811561122e578061121881611d0a565b91506112279050600a83611d39565b9150611208565b6000816001600160401b03811115611248576112486117dd565b6040519080825280601f01601f191660200182016040528015611272576020820181803683370190505b5090505b8415610e1757611287600183611c89565b9150611294600a86611d4d565b61129f906030611ca0565b60f81b8183815181106112b4576112b4611aef565b60200101906001600160f81b031916908160001a9053506112d6600a86611d39565b9450611276565b6000908152600260205260409020546001600160a01b0316151590565b6001600160a01b0383166113555761135081600880546000838152600960205260408120829055600182018355919091527ff3f7a9fe364faab93b216da50a3214154f22a0a2b415b23a84c8169e8b636ee30155565b611378565b816001600160a01b0316836001600160a01b0316146113785761137883826114b3565b6001600160a01b03821661138f576104d681611550565b826001600160a01b0316826001600160a01b0316146104d6576104d682826115ff565b60006001600160a01b0384163b156114a857604051630a85bd0160e11b81526001600160a01b0385169063150b7a02906113f6903390899088908890600401611d61565b6020604051808303816000875af1925050508015611431575060408051601f3d908101601f1916820190925261142e91810190611d9e565b60015b61148e573d80801561145f576040519150601f19603f3d011682016040523d82523d6000602084013e611464565b606091505b5080516000036114865760405162461bcd60e51b815260040161043590611cb8565b805181602001fd5b6001600160e01b031916630a85bd0160e11b149050610e17565b506001949350505050565b600060016114c084610685565b6114ca9190611c89565b60008381526007602052604090205490915080821461151d576001600160a01b03841660009081526006602090815260408083208584528252808320548484528184208190558352600790915290208190555b5060009182526007602090815260408084208490556001600160a01b039094168352600681528383209183525290812055565b60085460009061156290600190611c89565b6000838152600960205260408120546008805493945090928490811061158a5761158a611aef565b9060005260206000200154905080600883815481106115ab576115ab611aef565b60009182526020808320909101929092558281526009909152604080822084905585825281205560088054806115e3576115e3611dbb565b6001900381819060005260206000200160009055905550505050565b600061160a83610685565b6001600160a01b039093166000908152600660209081526040808320868452825280832085905593825260079052919091209190915550565b6040518060c00160405280600081526020016060815260200160008152602001600081526020016000815260200160006004811115611684576116846119d8565b905290565b6001600160e01b031981168114610d4f57600080fd5b6000602082840312156116b157600080fd5b8135610b8481611689565b60005b838110156116d75781810151838201526020016116bf565b83811115610b065750506000910152565b600081518084526117008160208601602086016116bc565b601f01601f19169290920160200192915050565b602081526000610b8460208301846116e8565b60006020828403121561173957600080fd5b5035919050565b80356001600160a01b038116811461175757600080fd5b919050565b6000806040838503121561176f57600080fd5b61177883611740565b946020939093013593505050565b60008060006060848603121561179b57600080fd5b6117a484611740565b92506117b260208501611740565b9150604084013590509250925092565b6000602082840312156117d457600080fd5b610b8482611740565b634e487b7160e01b600052604160045260246000fd5b60006001600160401b038084111561180d5761180d6117dd565b604051601f8501601f19908116603f01168101908282118183101715611835576118356117dd565b8160405280935085815286868601111561184e57600080fd5b858560208301376000602087830101525050509392505050565b600080600080600060a0868803121561188057600080fd5b85356001600160401b0381111561189657600080fd5b8601601f810188136118a757600080fd5b6118b6888235602084016117f3565b9550506020860135935060408601359250606086013591506080860135600581106118e057600080fd5b809150509295509295909350565b6000806040838503121561190157600080fd5b61190a83611740565b91506020830135801515811461191f57600080fd5b809150509250929050565b6000806000806080858703121561194057600080fd5b61194985611740565b935061195760208601611740565b92506040850135915060608501356001600160401b0381111561197957600080fd5b8501601f8101871361198a57600080fd5b611999878235602084016117f3565b91505092959194509250565b600080604083850312156119b857600080fd5b6119c183611740565b91506119cf60208401611740565b90509250929050565b634e487b7160e01b600052602160045260246000fd5b60208152815160208201526000602083015160c06040840152611a1460e08401826116e8565b90506040840151606084015260608401516080840152608084015160a084015260a084015160058110611a5757634e487b7160e01b600052602160045260246000fd5b60c0939093019290925250919050565b600181811c90821680611a7b57607f821691505b602082108103611a9b57634e487b7160e01b600052602260045260246000fd5b50919050565b6020808252602e908201527f4552433732313a2063616c6c6572206973206e6f7420746f6b656e206f776e6560408201526d1c881b9bdc88185c1c1c9bdd995960921b606082015260800190565b634e487b7160e01b600052603260045260246000fd5b602080825260189082015277115490cdcc8c4e881a5b9d985b1a59081d1bdad95b88125160421b604082015260600190565b601f8211156104d657600081815260208120601f850160051c81016020861015611b5e5750805b601f850160051c820191505b81811015611b7d57828155600101611b6a565b505050505050565b81516001600160401b03811115611b9e57611b9e6117dd565b611bb281611bac8454611a67565b84611b37565b602080601f831160018114611be75760008415611bcf5750858301515b600019600386901b1c1916600185901b178555611b7d565b600085815260208120601f198616915b82811015611c1657888601518255948401946001909101908401611bf7565b5085821015611c345787850151600019600388901b60f8161c191681555b5050505050600190811b01905550565b60008351611c568184602088016116bc565b835190830190611c6a8183602088016116bc565b01949350505050565b634e487b7160e01b600052601160045260246000fd5b600082821015611c9b57611c9b611c73565b500390565b60008219821115611cb357611cb3611c73565b500190565b60208082526032908201527f4552433732313a207472616e7366657220746f206e6f6e20455243373231526560408201527131b2b4bb32b91034b6b83632b6b2b73a32b960711b606082015260800190565b600060018201611d1c57611d1c611c73565b5060010190565b634e487b7160e01b600052601260045260246000fd5b600082611d4857611d48611d23565b500490565b600082611d5c57611d5c611d23565b500690565b6001600160a01b0385811682528416602082015260408101839052608060608201819052600090611d94908301846116e8565b9695505050505050565b600060208284031215611db057600080fd5b8151610b8481611689565b634e487b7160e01b600052603160045260246000fdfeddf252ad1be2c89b69c2b068fc378daa952ba7f163c4a11628f55a4df523b3efa26469706673582212200909691b15b493bcac16a0b8ebdf9a7011a79a95276cd7645007a22bfd8b04d864736f6c634300080f0033",
  "immutableReferences": {},
  "source": "// SPDX-License-Identifier: MIT\r\npragma solidity 0.8.15;\r\n\r\nimport \"./external/ERC721Enumerable.sol\";\r\nimport \"./external/Counters.sol\";\r\nimport \"./IDron.sol\";\r\n\r\ncontract Dron is IDron, ERC721Enumerable {\r\n    // =============================== Usings =============================================\r\n\r\n    using Counters for Counters.Counter;\r\n\r\n    // =============================== Properties =========================================\r\n\r\n    Counters.Counter private _tokenIds;\r\n    mapping(uint256 => DronInfo) private _dronIdToInfo;\r\n\r\n    // =============================== Constructors =======================================\r\n\r\n    constructor() ERC721(\"Dron\", \"Dron\") {\r\n        _tokenIds.increment(); // Not accept id 0\r\n    }\r\n\r\n    // =============================== Methods ============================================\r\n\r\n    function addDron(\r\n        string memory name_,\r\n        uint256 maxHeight_,\r\n        uint256 minHeight_,\r\n        uint256 price_,\r\n        Pesticides pesticide_\r\n    ) external {\r\n        // Check\r\n        require(bytes(name_).length > 0, \"ERROR: Name is blank!\");\r\n        require(minHeight_ > 0, \"ERROR: Min flight = 0!\");\r\n        require(maxHeight_ > minHeight_, \"ERROR: Min flight <= max!\");\r\n        require(price_ > 0, \"ERROR: Price = 0!\");\r\n        // Work\r\n        uint256 newItemId = _tokenIds.current();\r\n        _mint(msg.sender, newItemId);\r\n        _dronIdToInfo[newItemId] = DronInfo({\r\n            id: newItemId,\r\n            name: name_,\r\n            minimumFlightHeight: minHeight_,\r\n            maximumFlightHeight: maxHeight_,\r\n            price: price_,\r\n            pesticide: pesticide_\r\n        });\r\n        _tokenIds.increment();\r\n\r\n        emit NewDronAdded(msg.sender, newItemId);\r\n    }\r\n\r\n    function getDronOwner(uint256 dronId_) external view returns (address) {\r\n        return ownerOf(dronId_);\r\n    }\r\n\r\n    function checkDronExist(uint256 dronId_) external view returns (bool) {\r\n        require(\r\n            dronId_ > 0 && dronId_ < _tokenIds.current(),\r\n            \"ERROR: Id = 0 or > max counter\"\r\n        );\r\n        DronInfo memory dron = _dronIdToInfo[dronId_];\r\n        bool dronExist = dron.id == dronId_;\r\n        return dronExist;\r\n    }\r\n\r\n    function getDronWorkPrice(uint256 dronId_) external view returns (uint256) {\r\n        return _dronIdToInfo[dronId_].price;\r\n    }\r\n\r\n    function getDronInfo(uint256 dronId_)\r\n        external\r\n        view\r\n        returns (DronInfo memory)\r\n    {\r\n        return _dronIdToInfo[dronId_];\r\n    }\r\n}\r\n",
  "sourcePath": "C:\\GitHub\\estudios\\Curso Experto Universitario en Desarrollo de Aplicaciones Blockchain en UNIR\\Trabajo Final de Experto (BLO) - PER6061 2022-2023\\app\\src\\contracts\\Dron.sol",
  "compiler": {
    "name": "solc",
    "version": "0.8.15+commit.e14f2714.Emscripten.clang"
  },
  "schemaVersion": "3.4.7",
  "updatedAt": "2022-07-04T08:56:54.407Z",
  "networkType": "ethereum",
  "devdoc": {
    "kind": "dev",
    "methods": {
      "approve(address,uint256)": {
        "details": "See {IERC721-approve}."
      },
      "balanceOf(address)": {
        "details": "See {IERC721-balanceOf}."
      },
      "getApproved(uint256)": {
        "details": "See {IERC721-getApproved}."
      },
      "isApprovedForAll(address,address)": {
        "details": "See {IERC721-isApprovedForAll}."
      },
      "name()": {
        "details": "See {IERC721Metadata-name}."
      },
      "ownerOf(uint256)": {
        "details": "See {IERC721-ownerOf}."
      },
      "safeTransferFrom(address,address,uint256)": {
        "details": "See {IERC721-safeTransferFrom}."
      },
      "safeTransferFrom(address,address,uint256,bytes)": {
        "details": "See {IERC721-safeTransferFrom}."
      },
      "setApprovalForAll(address,bool)": {
        "details": "See {IERC721-setApprovalForAll}."
      },
      "supportsInterface(bytes4)": {
        "details": "See {IERC165-supportsInterface}."
      },
      "symbol()": {
        "details": "See {IERC721Metadata-symbol}."
      },
      "tokenByIndex(uint256)": {
        "details": "See {IERC721Enumerable-tokenByIndex}."
      },
      "tokenOfOwnerByIndex(address,uint256)": {
        "details": "See {IERC721Enumerable-tokenOfOwnerByIndex}."
      },
      "tokenURI(uint256)": {
        "details": "See {IERC721Metadata-tokenURI}."
      },
      "totalSupply()": {
        "details": "See {IERC721Enumerable-totalSupply}."
      },
      "transferFrom(address,address,uint256)": {
        "details": "See {IERC721-transferFrom}."
      }
    },
    "version": 1
  },
  "userdoc": {
    "kind": "user",
    "methods": {},
    "version": 1
  }
}