{
  "contractName": "FumigationDronToken",
  "abi": [
    {
      "inputs": [],
      "stateMutability": "nonpayable",
      "type": "constructor"
    },
    {
      "anonymous": false,
      "inputs": [
        {
          "indexed": true,
          "internalType": "address",
          "name": "owner",
          "type": "address"
        },
        {
          "indexed": true,
          "internalType": "address",
          "name": "spender",
          "type": "address"
        },
        {
          "indexed": false,
          "internalType": "uint256",
          "name": "value",
          "type": "uint256"
        }
      ],
      "name": "Approval",
      "type": "event"
    },
    {
      "anonymous": false,
      "inputs": [
        {
          "indexed": true,
          "internalType": "address",
          "name": "previousOwner",
          "type": "address"
        },
        {
          "indexed": true,
          "internalType": "address",
          "name": "newOwner",
          "type": "address"
        }
      ],
      "name": "OwnershipTransferred",
      "type": "event"
    },
    {
      "anonymous": false,
      "inputs": [
        {
          "indexed": false,
          "internalType": "address",
          "name": "wallet",
          "type": "address"
        },
        {
          "indexed": false,
          "internalType": "uint256",
          "name": "amount",
          "type": "uint256"
        }
      ],
      "name": "TokensBuyed",
      "type": "event"
    },
    {
      "anonymous": false,
      "inputs": [
        {
          "indexed": false,
          "internalType": "address",
          "name": "wallet",
          "type": "address"
        },
        {
          "indexed": false,
          "internalType": "uint256",
          "name": "tokensSelled",
          "type": "uint256"
        },
        {
          "indexed": false,
          "internalType": "uint256",
          "name": "etherReturned",
          "type": "uint256"
        }
      ],
      "name": "TokensReturned",
      "type": "event"
    },
    {
      "anonymous": false,
      "inputs": [
        {
          "indexed": true,
          "internalType": "address",
          "name": "from",
          "type": "address"
        },
        {
          "indexed": true,
          "internalType": "address",
          "name": "to",
          "type": "address"
        },
        {
          "indexed": false,
          "internalType": "uint256",
          "name": "value",
          "type": "uint256"
        }
      ],
      "name": "Transfer",
      "type": "event"
    },
    {
      "inputs": [
        {
          "internalType": "address",
          "name": "owner",
          "type": "address"
        },
        {
          "internalType": "address",
          "name": "spender",
          "type": "address"
        }
      ],
      "name": "allowance",
      "outputs": [
        {
          "internalType": "uint256",
          "name": "",
          "type": "uint256"
        }
      ],
      "stateMutability": "view",
      "type": "function",
      "constant": true
    },
    {
      "inputs": [
        {
          "internalType": "address",
          "name": "spender",
          "type": "address"
        },
        {
          "internalType": "uint256",
          "name": "amount",
          "type": "uint256"
        }
      ],
      "name": "approve",
      "outputs": [
        {
          "internalType": "bool",
          "name": "",
          "type": "bool"
        }
      ],
      "stateMutability": "nonpayable",
      "type": "function"
    },
    {
      "inputs": [
        {
          "internalType": "address",
          "name": "account",
          "type": "address"
        }
      ],
      "name": "balanceOf",
      "outputs": [
        {
          "internalType": "uint256",
          "name": "",
          "type": "uint256"
        }
      ],
      "stateMutability": "view",
      "type": "function",
      "constant": true
    },
    {
      "inputs": [
        {
          "internalType": "address",
          "name": "spender",
          "type": "address"
        },
        {
          "internalType": "uint256",
          "name": "subtractedValue",
          "type": "uint256"
        }
      ],
      "name": "decreaseAllowance",
      "outputs": [
        {
          "internalType": "bool",
          "name": "",
          "type": "bool"
        }
      ],
      "stateMutability": "nonpayable",
      "type": "function"
    },
    {
      "inputs": [
        {
          "internalType": "address",
          "name": "spender",
          "type": "address"
        },
        {
          "internalType": "uint256",
          "name": "addedValue",
          "type": "uint256"
        }
      ],
      "name": "increaseAllowance",
      "outputs": [
        {
          "internalType": "bool",
          "name": "",
          "type": "bool"
        }
      ],
      "stateMutability": "nonpayable",
      "type": "function"
    },
    {
      "inputs": [],
      "name": "name",
      "outputs": [
        {
          "internalType": "string",
          "name": "",
          "type": "string"
        }
      ],
      "stateMutability": "view",
      "type": "function",
      "constant": true
    },
    {
      "inputs": [],
      "name": "owner",
      "outputs": [
        {
          "internalType": "address",
          "name": "",
          "type": "address"
        }
      ],
      "stateMutability": "view",
      "type": "function",
      "constant": true
    },
    {
      "inputs": [],
      "name": "renounceOwnership",
      "outputs": [],
      "stateMutability": "nonpayable",
      "type": "function"
    },
    {
      "inputs": [],
      "name": "symbol",
      "outputs": [
        {
          "internalType": "string",
          "name": "",
          "type": "string"
        }
      ],
      "stateMutability": "view",
      "type": "function",
      "constant": true
    },
    {
      "inputs": [],
      "name": "totalSupply",
      "outputs": [
        {
          "internalType": "uint256",
          "name": "",
          "type": "uint256"
        }
      ],
      "stateMutability": "view",
      "type": "function",
      "constant": true
    },
    {
      "inputs": [
        {
          "internalType": "address",
          "name": "to",
          "type": "address"
        },
        {
          "internalType": "uint256",
          "name": "amount",
          "type": "uint256"
        }
      ],
      "name": "transfer",
      "outputs": [
        {
          "internalType": "bool",
          "name": "",
          "type": "bool"
        }
      ],
      "stateMutability": "nonpayable",
      "type": "function"
    },
    {
      "inputs": [
        {
          "internalType": "address",
          "name": "from",
          "type": "address"
        },
        {
          "internalType": "address",
          "name": "to",
          "type": "address"
        },
        {
          "internalType": "uint256",
          "name": "amount",
          "type": "uint256"
        }
      ],
      "name": "transferFrom",
      "outputs": [
        {
          "internalType": "bool",
          "name": "",
          "type": "bool"
        }
      ],
      "stateMutability": "nonpayable",
      "type": "function"
    },
    {
      "inputs": [
        {
          "internalType": "address",
          "name": "newOwner",
          "type": "address"
        }
      ],
      "name": "transferOwnership",
      "outputs": [],
      "stateMutability": "nonpayable",
      "type": "function"
    },
    {
      "inputs": [],
      "name": "decimals",
      "outputs": [
        {
          "internalType": "uint8",
          "name": "",
          "type": "uint8"
        }
      ],
      "stateMutability": "pure",
      "type": "function",
      "constant": true
    },
    {
      "inputs": [
        {
          "internalType": "uint256",
          "name": "amount",
          "type": "uint256"
        }
      ],
      "name": "tokenPrice",
      "outputs": [
        {
          "internalType": "uint256",
          "name": "",
          "type": "uint256"
        }
      ],
      "stateMutability": "pure",
      "type": "function",
      "constant": true
    },
    {
      "inputs": [
        {
          "internalType": "uint256",
          "name": "amount",
          "type": "uint256"
        }
      ],
      "name": "buy",
      "outputs": [],
      "stateMutability": "payable",
      "type": "function",
      "payable": true
    },
    {
      "inputs": [
        {
          "internalType": "uint256",
          "name": "amount",
          "type": "uint256"
        }
      ],
      "name": "sell",
      "outputs": [],
      "stateMutability": "payable",
      "type": "function",
      "payable": true
    },
    {
      "inputs": [
        {
          "internalType": "address",
          "name": "sender",
          "type": "address"
        },
        {
          "internalType": "address",
          "name": "receiver",
          "type": "address"
        },
        {
          "internalType": "uint256",
          "name": "amount",
          "type": "uint256"
        }
      ],
      "name": "transferFromTo",
      "outputs": [],
      "stateMutability": "nonpayable",
      "type": "function"
    },
    {
      "inputs": [],
      "name": "myBalance",
      "outputs": [
        {
          "internalType": "uint256",
          "name": "",
          "type": "uint256"
        }
      ],
      "stateMutability": "view",
      "type": "function",
      "constant": true
    },
    {
      "inputs": [],
      "name": "contractBalanceETH",
      "outputs": [
        {
          "internalType": "uint256",
          "name": "",
          "type": "uint256"
        }
      ],
      "stateMutability": "view",
      "type": "function",
      "constant": true
    }
  ],
  "bytecode": "0x60806040523480156200001157600080fd5b506040518060400160405280601581526020017f46756d69676174696f6e2044726f6e20546f6b656e00000000000000000000008152506040518060400160405280600381526020016211911560ea1b8152508160039081620000759190620001a2565b506004620000848282620001a2565b505050620000a16200009b620000a760201b60201c565b620000ab565b6200026e565b3390565b600580546001600160a01b038381166001600160a01b0319831681179093556040519116919082907f8be0079c531659141344cd1fd0a4f28419497f9722a3daafe3b4186f6b6457e090600090a35050565b634e487b7160e01b600052604160045260246000fd5b600181811c908216806200012857607f821691505b6020821081036200014957634e487b7160e01b600052602260045260246000fd5b50919050565b601f8211156200019d57600081815260208120601f850160051c81016020861015620001785750805b601f850160051c820191505b81811015620001995782815560010162000184565b5050505b505050565b81516001600160401b03811115620001be57620001be620000fd565b620001d681620001cf845462000113565b846200014f565b602080601f8311600181146200020e5760008415620001f55750858301515b600019600386901b1c1916600185901b17855562000199565b600085815260208120601f198616915b828110156200023f578886015182559484019460019091019084016200021e565b50858210156200025e5787850151600019600388901b60f8161c191681555b5050505050600190811b01905550565b6111b4806200027e6000396000f3fe6080604052600436106100ef5760003560e01c806306fdde03146100f4578063095ea7b31461011f57806318160ddd1461014f57806323b872dd1461016e578063313ce5671461018e57806339509351146101aa578063579952fc146101ca57806370a08231146101ec578063715018a61461020c5780638da5cb5b1461022157806395d89b411461024e578063a457c2d714610263578063a9059cbb14610283578063c9116b69146102a3578063d4ddce8a146102b8578063d96a094a146102d8578063dd62ed3e146102eb578063de9774951461030b578063e4849b321461031e578063f2fde38b14610331575b600080fd5b34801561010057600080fd5b50610109610351565b6040516101169190610e66565b60405180910390f35b34801561012b57600080fd5b5061013f61013a366004610ed7565b6103e3565b6040519015158152602001610116565b34801561015b57600080fd5b506002545b604051908152602001610116565b34801561017a57600080fd5b5061013f610189366004610f01565b6103fd565b34801561019a57600080fd5b5060405160028152602001610116565b3480156101b657600080fd5b5061013f6101c5366004610ed7565b610421565b3480156101d657600080fd5b506101ea6101e5366004610f01565b610443565b005b3480156101f857600080fd5b50610160610207366004610f3d565b6104b0565b34801561021857600080fd5b506101ea6104cb565b34801561022d57600080fd5b506102366104df565b6040516001600160a01b039091168152602001610116565b34801561025a57600080fd5b506101096104ee565b34801561026f57600080fd5b5061013f61027e366004610ed7565b6104fd565b34801561028f57600080fd5b5061013f61029e366004610ed7565b610578565b3480156102af57600080fd5b50610160610586565b3480156102c457600080fd5b506101606102d3366004610f5f565b610596565b6101ea6102e6366004610f5f565b6105bf565b3480156102f757600080fd5b50610160610306366004610f78565b610694565b34801561031757600080fd5b5047610160565b6101ea61032c366004610f5f565b6106bf565b34801561033d57600080fd5b506101ea61034c366004610f3d565b6107d9565b60606003805461036090610fab565b80601f016020809104026020016040519081016040528092919081815260200182805461038c90610fab565b80156103d95780601f106103ae576101008083540402835291602001916103d9565b820191906000526020600020905b8154815290600101906020018083116103bc57829003601f168201915b5050505050905090565b6000336103f1818585610852565b60019150505b92915050565b60003361040b858285610976565b6104168585856109f0565b506001949350505050565b6000336103f18185856104348383610694565b61043e9190610ffb565b610852565b61044c836104b0565b8111156104a05760405162461bcd60e51b815260206004820152601f60248201527f4552524f523a206578636565642062616c616e6365206f662073656e6465720060448201526064015b60405180910390fd5b6104ab8383836109f0565b505050565b6001600160a01b031660009081526020819052604090205490565b6104d3610bac565b6104dd6000610c0b565b565b6005546001600160a01b031690565b60606004805461036090610fab565b6000338161050b8286610694565b90508381101561056b5760405162461bcd60e51b815260206004820152602560248201527f45524332303a2064656372656173656420616c6c6f77616e63652062656c6f77604482015264207a65726f60d81b6064820152608401610497565b6104168286868403610852565b6000336103f18185856109f0565b6000610591336104b0565b905090565b60006105a46002600a6110f7565b6105b583662386f26fc10000611106565b6103f79190611125565b60006105ca82610596565b90508034101561060e5760405162461bcd60e51b815260206004820152600f60248201526e4552524f523a20427579206c65737360881b6044820152606401610497565b600061061a8234611147565b604051909150339082156108fc029083906000818181858888f1935050505015801561064a573d6000803e3d6000fd5b506106553384610c5d565b60408051338152602081018590527fbe6bc9d4239292522998aa4d9d7b959ce1c68dae3f7a1f5e6c0cb812ee86ada291015b60405180910390a1505050565b6001600160a01b03918216600090815260016020908152604080832093909416825291909152205490565b600081116107035760405162461bcd60e51b815260206004820152601160248201527004552524f523a20416d6f756e74203d203607c1b6044820152606401610497565b600061070e336104b0565b9050808211156107555760405162461bcd60e51b81526020600482015260126024820152714552524f523a204c6f772062616c616e636560701b6044820152606401610497565b61075f3383610d2a565b600061076a83610596565b604051909150339082156108fc029083906000818181858888f1935050505015801561079a573d6000803e3d6000fd5b5060408051338152602081018590529081018290527fc03fac854c2a2155b44aac20afb4cb71f325b5c8ccf9af8bd8f6546205e9131090606001610687565b6107e1610bac565b6001600160a01b0381166108465760405162461bcd60e51b815260206004820152602660248201527f4f776e61626c653a206e6577206f776e657220697320746865207a65726f206160448201526564647265737360d01b6064820152608401610497565b61084f81610c0b565b50565b6001600160a01b0383166108b45760405162461bcd60e51b8152602060048201526024808201527f45524332303a20617070726f76652066726f6d20746865207a65726f206164646044820152637265737360e01b6064820152608401610497565b6001600160a01b0382166109155760405162461bcd60e51b815260206004820152602260248201527f45524332303a20617070726f766520746f20746865207a65726f206164647265604482015261737360f01b6064820152608401610497565b6001600160a01b0383811660008181526001602090815260408083209487168084529482529182902085905590518481527f8c5be1e5ebec7d5bd14f71427d1e84f3dd0314c0f7b2291e5b200ac8c7c3b925910160405180910390a3505050565b60006109828484610694565b905060001981146109ea57818110156109dd5760405162461bcd60e51b815260206004820152601d60248201527f45524332303a20696e73756666696369656e7420616c6c6f77616e63650000006044820152606401610497565b6109ea8484848403610852565b50505050565b6001600160a01b038316610a545760405162461bcd60e51b815260206004820152602560248201527f45524332303a207472616e736665722066726f6d20746865207a65726f206164604482015264647265737360d81b6064820152608401610497565b6001600160a01b038216610ab65760405162461bcd60e51b815260206004820152602360248201527f45524332303a207472616e7366657220746f20746865207a65726f206164647260448201526265737360e81b6064820152608401610497565b6001600160a01b03831660009081526020819052604090205481811015610b2e5760405162461bcd60e51b815260206004820152602660248201527f45524332303a207472616e7366657220616d6f756e7420657863656564732062604482015265616c616e636560d01b6064820152608401610497565b6001600160a01b03808516600090815260208190526040808220858503905591851681529081208054849290610b65908490610ffb565b92505081905550826001600160a01b0316846001600160a01b031660008051602061115f83398151915284604051610b9f91815260200190565b60405180910390a36109ea565b33610bb56104df565b6001600160a01b0316146104dd5760405162461bcd60e51b815260206004820181905260248201527f4f776e61626c653a2063616c6c6572206973206e6f7420746865206f776e65726044820152606401610497565b600580546001600160a01b038381166001600160a01b0319831681179093556040519116919082907f8be0079c531659141344cd1fd0a4f28419497f9722a3daafe3b4186f6b6457e090600090a35050565b6001600160a01b038216610cb35760405162461bcd60e51b815260206004820152601f60248201527f45524332303a206d696e7420746f20746865207a65726f2061646472657373006044820152606401610497565b8060026000828254610cc59190610ffb565b90915550506001600160a01b03821660009081526020819052604081208054839290610cf2908490610ffb565b90915550506040518181526001600160a01b0383169060009060008051602061115f8339815191529060200160405180910390a35050565b6001600160a01b038216610d8a5760405162461bcd60e51b815260206004820152602160248201527f45524332303a206275726e2066726f6d20746865207a65726f206164647265736044820152607360f81b6064820152608401610497565b6001600160a01b03821660009081526020819052604090205481811015610dfe5760405162461bcd60e51b815260206004820152602260248201527f45524332303a206275726e20616d6f756e7420657863656564732062616c616e604482015261636560f01b6064820152608401610497565b6001600160a01b0383166000908152602081905260408120838303905560028054849290610e2d908490611147565b90915550506040518281526000906001600160a01b0385169060008051602061115f8339815191529060200160405180910390a3505050565b600060208083528351808285015260005b81811015610e9357858101830151858201604001528201610e77565b81811115610ea5576000604083870101525b50601f01601f1916929092016040019392505050565b80356001600160a01b0381168114610ed257600080fd5b919050565b60008060408385031215610eea57600080fd5b610ef383610ebb565b946020939093013593505050565b600080600060608486031215610f1657600080fd5b610f1f84610ebb565b9250610f2d60208501610ebb565b9150604084013590509250925092565b600060208284031215610f4f57600080fd5b610f5882610ebb565b9392505050565b600060208284031215610f7157600080fd5b5035919050565b60008060408385031215610f8b57600080fd5b610f9483610ebb565b9150610fa260208401610ebb565b90509250929050565b600181811c90821680610fbf57607f821691505b602082108103610fdf57634e487b7160e01b600052602260045260246000fd5b50919050565b634e487b7160e01b600052601160045260246000fd5b6000821982111561100e5761100e610fe5565b500190565b600181815b8085111561104e57816000190482111561103457611034610fe5565b8085161561104157918102915b93841c9390800290611018565b509250929050565b600082611065575060016103f7565b81611072575060006103f7565b81600181146110885760028114611092576110ae565b60019150506103f7565b60ff8411156110a3576110a3610fe5565b50506001821b6103f7565b5060208310610133831016604e8410600b84101617156110d1575081810a6103f7565b6110db8383611013565b80600019048211156110ef576110ef610fe5565b029392505050565b6000610f5860ff841683611056565b600081600019048311821515161561112057611120610fe5565b500290565b60008261114257634e487b7160e01b600052601260045260246000fd5b500490565b60008282101561115957611159610fe5565b50039056feddf252ad1be2c89b69c2b068fc378daa952ba7f163c4a11628f55a4df523b3efa264697066735822122030ea6a7031ef45fdb5ffc191ad73552718557dff2908fdcbec68b70a19c22efc64736f6c634300080f0033",
  "immutableReferences": {},
  "source": "// SPDX-License-Identifier: MIT\r\npragma solidity 0.8.15;\r\n\r\nimport \"./external/ERC20.sol\";\r\nimport \"./external/Ownable.sol\";\r\nimport \"./IFumigationDronToken.sol\";\r\n\r\ncontract FumigationDronToken is ERC20, Ownable, IFumigationDronToken {\r\n    // =============================== Constructors =======================================\r\n\r\n    constructor() ERC20(\"Fumigation Dron Token\", \"FDT\") {}\r\n\r\n    // =============================== Methods ============================================\r\n\r\n    function decimals() public pure override returns (uint8) {\r\n        return 2;\r\n    }\r\n\r\n    function tokenPrice(uint256 amount) public pure returns (uint256) {\r\n        return (amount * 0.01 ether) / 10**decimals(); // amount X tokens to buy with 2 decimal\r\n    }\r\n\r\n    function buy(uint256 amount) external payable {\r\n        // Calculate the cost of tokens\r\n        uint256 cost = tokenPrice(amount);\r\n        // It is required that the value of ethers paid is equivalent to the cost\r\n        require(\r\n            msg.value >= cost,\r\n            \"ERROR: Buy less\"\r\n        );\r\n        // Difference to pay\r\n        uint256 returnValue = msg.value - cost;\r\n        // Difference transfer\r\n        payable(msg.sender).transfer(returnValue);\r\n        // Transfer of tokens to the buyer\r\n        _mint(msg.sender, amount);\r\n        // Issue the token purchase event\r\n        emit TokensBuyed(msg.sender, amount);\r\n    }\r\n\r\n    function sell(uint256 amount) external payable {\r\n        // The number of tokens to return must be greater than 0\r\n        require(\r\n            amount > 0,\r\n            \"ERROR: Amount = 0\"\r\n        );\r\n        // The user/client must have the tokens they want to return\r\n        uint256 accountTokens = balanceOf(msg.sender);\r\n        require(\r\n            amount <= accountTokens,\r\n            \"ERROR: Low balance\"\r\n        );\r\n        // RETURN:\r\n        // 1. The client returns the tokens\r\n        // 2. The system pays the returned tokens in ethers\r\n        //_transfer(sender, receiver, amount);\r\n        _burn(msg.sender, amount);\r\n        uint256 tokenPriceInEther = tokenPrice(amount);\r\n        payable(msg.sender).transfer(tokenPriceInEther);\r\n        // Broadcast of the event\r\n        emit TokensReturned(msg.sender, amount, tokenPriceInEther);\r\n    }\r\n\r\n    function transferFromTo(\r\n        address sender,\r\n        address receiver,\r\n        uint256 amount\r\n    ) external {\r\n        require(\r\n            amount <= balanceOf(sender),\r\n            \"ERROR: exceed balance of sender\"\r\n        );\r\n        _transfer(sender, receiver, amount);\r\n    }\r\n\r\n    function myBalance() external view returns (uint256) {\r\n        return balanceOf(msg.sender);\r\n    }\r\n\r\n    function contractBalanceETH() external view returns (uint256) {\r\n        return address(this).balance;\r\n    }\r\n}\r\n",
  "sourcePath": "C:\\GitHub\\estudios\\Curso Experto Universitario en Desarrollo de Aplicaciones Blockchain en UNIR\\Trabajo Final de Experto (BLO) - PER6061 2022-2023\\app\\src\\contracts\\FumigationDronToken.sol",
  "compiler": {
    "name": "solc",
    "version": "0.8.15+commit.e14f2714.Emscripten.clang"
  },
  "schemaVersion": "3.4.7",
  "updatedAt": "2022-07-04T08:56:54.440Z",
  "networkType": "ethereum",
  "devdoc": {
    "kind": "dev",
    "methods": {
      "allowance(address,address)": {
        "details": "See {IERC20-allowance}."
      },
      "approve(address,uint256)": {
        "details": "See {IERC20-approve}. NOTE: If `amount` is the maximum `uint256`, the allowance is not updated on `transferFrom`. This is semantically equivalent to an infinite approval. Requirements: - `spender` cannot be the zero address."
      },
      "balanceOf(address)": {
        "details": "See {IERC20-balanceOf}."
      },
      "decimals()": {
        "details": "Returns the number of decimals used to get its user representation. For example, if `decimals` equals `2`, a balance of `505` tokens should be displayed to a user as `5.05` (`505 / 10 ** 2`). Tokens usually opt for a value of 18, imitating the relationship between Ether and Wei. This is the value {ERC20} uses, unless this function is overridden; NOTE: This information is only used for _display_ purposes: it in no way affects any of the arithmetic of the contract, including {IERC20-balanceOf} and {IERC20-transfer}."
      },
      "decreaseAllowance(address,uint256)": {
        "details": "Atomically decreases the allowance granted to `spender` by the caller. This is an alternative to {approve} that can be used as a mitigation for problems described in {IERC20-approve}. Emits an {Approval} event indicating the updated allowance. Requirements: - `spender` cannot be the zero address. - `spender` must have allowance for the caller of at least `subtractedValue`."
      },
      "increaseAllowance(address,uint256)": {
        "details": "Atomically increases the allowance granted to `spender` by the caller. This is an alternative to {approve} that can be used as a mitigation for problems described in {IERC20-approve}. Emits an {Approval} event indicating the updated allowance. Requirements: - `spender` cannot be the zero address."
      },
      "name()": {
        "details": "Returns the name of the token."
      },
      "owner()": {
        "details": "Returns the address of the current owner."
      },
      "renounceOwnership()": {
        "details": "Leaves the contract without owner. It will not be possible to call `onlyOwner` functions anymore. Can only be called by the current owner. NOTE: Renouncing ownership will leave the contract without an owner, thereby removing any functionality that is only available to the owner."
      },
      "symbol()": {
        "details": "Returns the symbol of the token, usually a shorter version of the name."
      },
      "totalSupply()": {
        "details": "See {IERC20-totalSupply}."
      },
      "transfer(address,uint256)": {
        "details": "See {IERC20-transfer}. Requirements: - `to` cannot be the zero address. - the caller must have a balance of at least `amount`."
      },
      "transferFrom(address,address,uint256)": {
        "details": "See {IERC20-transferFrom}. Emits an {Approval} event indicating the updated allowance. This is not required by the EIP. See the note at the beginning of {ERC20}. NOTE: Does not update the allowance if the current allowance is the maximum `uint256`. Requirements: - `from` and `to` cannot be the zero address. - `from` must have a balance of at least `amount`. - the caller must have allowance for ``from``'s tokens of at least `amount`."
      },
      "transferOwnership(address)": {
        "details": "Transfers ownership of the contract to a new account (`newOwner`). Can only be called by the current owner."
      }
    },
    "version": 1
  },
  "userdoc": {
    "kind": "user",
    "methods": {},
    "version": 1
  }
}