{
  "contractName": "Platform",
  "abi": [
    {
      "inputs": [],
      "stateMutability": "nonpayable",
      "type": "constructor"
    },
    {
      "inputs": [
        {
          "internalType": "uint256",
          "name": "plotId",
          "type": "uint256"
        },
        {
          "internalType": "uint256",
          "name": "dronId",
          "type": "uint256"
        }
      ],
      "name": "SetWorkToDron",
      "outputs": [],
      "stateMutability": "nonpayable",
      "type": "function"
    },
    {
      "inputs": [],
      "name": "PayForOperation",
      "outputs": [],
      "stateMutability": "payable",
      "type": "function"
    }
  ],
  "bytecode": "0x6080604052348015600f57600080fd5b50600080546001600160a01b03191633179055609f806100306000396000f3fe60806040526004361060265760003560e01c80637f9efd4214602b5780638593c470146046575b600080fd5b348015603657600080fd5b50604660423660046048565b5050565b005b60008060408385031215605a57600080fd5b5050803592602090910135915056fea264697066735822122037a1d869cd7ccb9b6a30bddc9215f1b5e9e1674ea7da6ac662d4e33dae04f94064736f6c634300080f0033",
  "immutableReferences": {},
  "source": "// SPDX-License-Identifier: MIT\r\npragma solidity 0.8.15;\r\n\r\nimport \"./Dron.sol\";\r\nimport \"./Pesticides.sol\";\r\nimport \"./Plot.sol\";\r\n\r\ncontract Platform {\r\n\r\n    address private _managerFirm;\r\n    //Dron private _dronContract;\r\n\r\n    constructor() {\r\n        _managerFirm = msg.sender;\r\n        //_dronContract = new Dron(_managerFirm);\r\n    }\r\n\r\n    // Hire a drone to the company to disinfect a plot with a certain pesticide\r\n    function SetWorkToDron(uint256 plotId, uint256 dronId) public {\r\n\r\n    }\r\n\r\n    // Payment of the operation carried out from the account of the owner to that of the company\r\n    function PayForOperation() public payable {\r\n\r\n    }\r\n\r\n}",
  "sourcePath": "C:\\GitHub\\estudios\\Curso Experto Universitario en Desarrollo de Aplicaciones Blockchain en UNIR\\Trabajo Final de Experto (BLO) - PER6061 2022-2023\\app\\src\\contracts\\Platform.sol",
  "compiler": {
    "name": "solc",
    "version": "0.8.15+commit.e14f2714.Emscripten.clang"
  },
  "schemaVersion": "3.4.7",
  "updatedAt": "2022-06-30T23:04:41.164Z",
  "devdoc": {
    "kind": "dev",
    "methods": {},
    "version": 1
  },
  "userdoc": {
    "kind": "user",
    "methods": {},
    "version": 1
  }
}