{
  "contractName": "Plot",
  "abi": [
    {
      "inputs": [],
      "stateMutability": "nonpayable",
      "type": "constructor"
    },
    {
      "anonymous": false,
      "inputs": [
        {
          "indexed": true,
          "internalType": "address",
          "name": "owner",
          "type": "address"
        },
        {
          "indexed": true,
          "internalType": "address",
          "name": "approved",
          "type": "address"
        },
        {
          "indexed": true,
          "internalType": "uint256",
          "name": "tokenId",
          "type": "uint256"
        }
      ],
      "name": "Approval",
      "type": "event"
    },
    {
      "anonymous": false,
      "inputs": [
        {
          "indexed": true,
          "internalType": "address",
          "name": "owner",
          "type": "address"
        },
        {
          "indexed": true,
          "internalType": "address",
          "name": "operator",
          "type": "address"
        },
        {
          "indexed": false,
          "internalType": "bool",
          "name": "approved",
          "type": "bool"
        }
      ],
      "name": "ApprovalForAll",
      "type": "event"
    },
    {
      "anonymous": false,
      "inputs": [
        {
          "indexed": false,
          "internalType": "address",
          "name": "owner",
          "type": "address"
        },
        {
          "indexed": false,
          "internalType": "uint256",
          "name": "plotId",
          "type": "uint256"
        }
      ],
      "name": "NewPlotAdded",
      "type": "event"
    },
    {
      "anonymous": false,
      "inputs": [
        {
          "indexed": true,
          "internalType": "address",
          "name": "from",
          "type": "address"
        },
        {
          "indexed": true,
          "internalType": "address",
          "name": "to",
          "type": "address"
        },
        {
          "indexed": true,
          "internalType": "uint256",
          "name": "tokenId",
          "type": "uint256"
        }
      ],
      "name": "Transfer",
      "type": "event"
    },
    {
      "inputs": [
        {
          "internalType": "address",
          "name": "to",
          "type": "address"
        },
        {
          "internalType": "uint256",
          "name": "tokenId",
          "type": "uint256"
        }
      ],
      "name": "approve",
      "outputs": [],
      "stateMutability": "nonpayable",
      "type": "function"
    },
    {
      "inputs": [
        {
          "internalType": "address",
          "name": "owner",
          "type": "address"
        }
      ],
      "name": "balanceOf",
      "outputs": [
        {
          "internalType": "uint256",
          "name": "",
          "type": "uint256"
        }
      ],
      "stateMutability": "view",
      "type": "function",
      "constant": true
    },
    {
      "inputs": [
        {
          "internalType": "uint256",
          "name": "tokenId",
          "type": "uint256"
        }
      ],
      "name": "getApproved",
      "outputs": [
        {
          "internalType": "address",
          "name": "",
          "type": "address"
        }
      ],
      "stateMutability": "view",
      "type": "function",
      "constant": true
    },
    {
      "inputs": [
        {
          "internalType": "address",
          "name": "owner",
          "type": "address"
        },
        {
          "internalType": "address",
          "name": "operator",
          "type": "address"
        }
      ],
      "name": "isApprovedForAll",
      "outputs": [
        {
          "internalType": "bool",
          "name": "",
          "type": "bool"
        }
      ],
      "stateMutability": "view",
      "type": "function",
      "constant": true
    },
    {
      "inputs": [],
      "name": "name",
      "outputs": [
        {
          "internalType": "string",
          "name": "",
          "type": "string"
        }
      ],
      "stateMutability": "view",
      "type": "function",
      "constant": true
    },
    {
      "inputs": [
        {
          "internalType": "uint256",
          "name": "tokenId",
          "type": "uint256"
        }
      ],
      "name": "ownerOf",
      "outputs": [
        {
          "internalType": "address",
          "name": "",
          "type": "address"
        }
      ],
      "stateMutability": "view",
      "type": "function",
      "constant": true
    },
    {
      "inputs": [
        {
          "internalType": "address",
          "name": "from",
          "type": "address"
        },
        {
          "internalType": "address",
          "name": "to",
          "type": "address"
        },
        {
          "internalType": "uint256",
          "name": "tokenId",
          "type": "uint256"
        }
      ],
      "name": "safeTransferFrom",
      "outputs": [],
      "stateMutability": "nonpayable",
      "type": "function"
    },
    {
      "inputs": [
        {
          "internalType": "address",
          "name": "from",
          "type": "address"
        },
        {
          "internalType": "address",
          "name": "to",
          "type": "address"
        },
        {
          "internalType": "uint256",
          "name": "tokenId",
          "type": "uint256"
        },
        {
          "internalType": "bytes",
          "name": "data",
          "type": "bytes"
        }
      ],
      "name": "safeTransferFrom",
      "outputs": [],
      "stateMutability": "nonpayable",
      "type": "function"
    },
    {
      "inputs": [
        {
          "internalType": "address",
          "name": "operator",
          "type": "address"
        },
        {
          "internalType": "bool",
          "name": "approved",
          "type": "bool"
        }
      ],
      "name": "setApprovalForAll",
      "outputs": [],
      "stateMutability": "nonpayable",
      "type": "function"
    },
    {
      "inputs": [
        {
          "internalType": "bytes4",
          "name": "interfaceId",
          "type": "bytes4"
        }
      ],
      "name": "supportsInterface",
      "outputs": [
        {
          "internalType": "bool",
          "name": "",
          "type": "bool"
        }
      ],
      "stateMutability": "view",
      "type": "function",
      "constant": true
    },
    {
      "inputs": [],
      "name": "symbol",
      "outputs": [
        {
          "internalType": "string",
          "name": "",
          "type": "string"
        }
      ],
      "stateMutability": "view",
      "type": "function",
      "constant": true
    },
    {
      "inputs": [
        {
          "internalType": "uint256",
          "name": "index",
          "type": "uint256"
        }
      ],
      "name": "tokenByIndex",
      "outputs": [
        {
          "internalType": "uint256",
          "name": "",
          "type": "uint256"
        }
      ],
      "stateMutability": "view",
      "type": "function",
      "constant": true
    },
    {
      "inputs": [
        {
          "internalType": "address",
          "name": "owner",
          "type": "address"
        },
        {
          "internalType": "uint256",
          "name": "index",
          "type": "uint256"
        }
      ],
      "name": "tokenOfOwnerByIndex",
      "outputs": [
        {
          "internalType": "uint256",
          "name": "",
          "type": "uint256"
        }
      ],
      "stateMutability": "view",
      "type": "function",
      "constant": true
    },
    {
      "inputs": [
        {
          "internalType": "uint256",
          "name": "tokenId",
          "type": "uint256"
        }
      ],
      "name": "tokenURI",
      "outputs": [
        {
          "internalType": "string",
          "name": "",
          "type": "string"
        }
      ],
      "stateMutability": "view",
      "type": "function",
      "constant": true
    },
    {
      "inputs": [],
      "name": "totalSupply",
      "outputs": [
        {
          "internalType": "uint256",
          "name": "",
          "type": "uint256"
        }
      ],
      "stateMutability": "view",
      "type": "function",
      "constant": true
    },
    {
      "inputs": [
        {
          "internalType": "address",
          "name": "from",
          "type": "address"
        },
        {
          "internalType": "address",
          "name": "to",
          "type": "address"
        },
        {
          "internalType": "uint256",
          "name": "tokenId",
          "type": "uint256"
        }
      ],
      "name": "transferFrom",
      "outputs": [],
      "stateMutability": "nonpayable",
      "type": "function"
    },
    {
      "inputs": [
        {
          "internalType": "string",
          "name": "name_",
          "type": "string"
        },
        {
          "internalType": "uint256",
          "name": "minHeight_",
          "type": "uint256"
        },
        {
          "internalType": "uint256",
          "name": "maxHeight_",
          "type": "uint256"
        },
        {
          "internalType": "enum IPesticides.Pesticides",
          "name": "pesticide_",
          "type": "uint8"
        }
      ],
      "name": "addPlot",
      "outputs": [],
      "stateMutability": "nonpayable",
      "type": "function"
    },
    {
      "inputs": [
        {
          "internalType": "uint256",
          "name": "plotId_",
          "type": "uint256"
        }
      ],
      "name": "getPlotOwner",
      "outputs": [
        {
          "internalType": "address",
          "name": "",
          "type": "address"
        }
      ],
      "stateMutability": "view",
      "type": "function",
      "constant": true
    },
    {
      "inputs": [
        {
          "internalType": "uint256",
          "name": "plotId_",
          "type": "uint256"
        }
      ],
      "name": "getPlotInfo",
      "outputs": [
        {
          "components": [
            {
              "internalType": "uint256",
              "name": "id",
              "type": "uint256"
            },
            {
              "internalType": "string",
              "name": "name",
              "type": "string"
            },
            {
              "internalType": "uint256",
              "name": "allowedMaximumFlightHeight",
              "type": "uint256"
            },
            {
              "internalType": "uint256",
              "name": "allowedMinimumFlightHeight",
              "type": "uint256"
            },
            {
              "internalType": "enum IPesticides.Pesticides",
              "name": "allowedPesticide",
              "type": "uint8"
            }
          ],
          "internalType": "struct IPlot.PlotInfo",
          "name": "",
          "type": "tuple"
        }
      ],
      "stateMutability": "view",
      "type": "function",
      "constant": true
    }
  ],
  "bytecode": "0x60806040523480156200001157600080fd5b50604080518082018252600480825263141b1bdd60e21b60208084018290528451808601909552918452908301529060006200004e83826200012b565b5060016200005d82826200012b565b50505062000077600a6200007d60201b62000ab61760201c565b620001f7565b80546001019055565b634e487b7160e01b600052604160045260246000fd5b600181811c90821680620000b157607f821691505b602082108103620000d257634e487b7160e01b600052602260045260246000fd5b50919050565b601f8211156200012657600081815260208120601f850160051c81016020861015620001015750805b601f850160051c820191505b8181101562000122578281556001016200010d565b5050505b505050565b81516001600160401b0381111562000147576200014762000086565b6200015f816200015884546200009c565b84620000d8565b602080601f8311600181146200019757600084156200017e5750858301515b600019600386901b1c1916600185901b17855562000122565b600085815260208120601f198616915b82811015620001c857888601518255948401946001909101908401620001a7565b5085821015620001e75787850151600019600388901b60f8161c191681555b5050505050600190811b01905550565b611bef80620002076000396000f3fe608060405234801561001057600080fd5b50600436106100f15760003560e01c806301ffc9a7146100f657806306454e481461011e57806306fdde0314610133578063081812fc14610148578063095ea7b31461017357806318160ddd146101865780631db29a201461019857806323b872dd146101b85780632f745c59146101cb57806342842e0e146101de5780634f6ccce7146101f15780636352211e1461020457806370a082311461021757806395d89b411461022a578063a1f45dd614610232578063a22cb46514610245578063b88d4fde14610258578063c87b56dd1461026b578063e985e9c51461027e575b600080fd5b61010961010436600461147d565b610291565b60405190151581526020015b60405180910390f35b61013161012c366004611525565b6102bc565b005b61013b6104a7565b60405161011591906115f7565b61015b61015636600461160a565b610539565b6040516001600160a01b039091168152602001610115565b61013161018136600461163f565b610560565b6008545b604051908152602001610115565b6101ab6101a636600461160a565b610675565b604051610115919061167f565b6101316101c63660046116ee565b610783565b61018a6101d936600461163f565b6107b4565b6101316101ec3660046116ee565b61084a565b61018a6101ff36600461160a565b610865565b61015b61021236600461160a565b6108f8565b61018a61022536600461172a565b61092d565b61013b6109b3565b61015b61024036600461160a565b6109c2565b610131610253366004611745565b6109cd565b610131610266366004611781565b6109dc565b61013b61027936600461160a565b610a14565b61010961028c3660046117fc565b610a88565b60006001600160e01b0319821663780e9d6360e01b14806102b657506102b682610abf565b92915050565b600084511161030a5760405162461bcd60e51b81526020600482015260156024820152744552524f523a204e616d6520697320626c616e6b2160581b60448201526064015b60405180910390fd5b600083116103575760405162461bcd60e51b815260206004820152601a6024820152794552524f523a204d696e696d756e20666c69676874203d20302160301b6044820152606401610301565b8282116103a25760405162461bcd60e51b81526020600482015260196024820152784552524f523a204d696e20666c69676874203c3d206d61782160381b6044820152606401610301565b60006103ad600a5490565b90506103b93382610b0f565b6040518060a001604052808281526020018681526020018481526020018581526020018360048111156103ee576103ee611669565b90526000828152600b602090815260409091208251815590820151600182019061041890826118b7565b50604082015181600201556060820151816003015560808201518160040160006101000a81548160ff0219169083600481111561045757610457611669565b021790555050600a805460010190555060408051338152602081018390527f37e862827ab2692543e6c27847cdcb9bf5c19ba7bcb184429e81264e08043305910160405180910390a15050505050565b6060600080546104b69061182f565b80601f01602080910402602001604051908101604052809291908181526020018280546104e29061182f565b801561052f5780601f106105045761010080835404028352916020019161052f565b820191906000526020600020905b81548152906001019060200180831161051257829003601f168201915b5050505050905090565b600061054482610c3b565b506000908152600460205260409020546001600160a01b031690565b600061056b826108f8565b9050806001600160a01b0316836001600160a01b0316036105d85760405162461bcd60e51b815260206004820152602160248201527f4552433732313a20617070726f76616c20746f2063757272656e74206f776e656044820152603960f91b6064820152608401610301565b336001600160a01b03821614806105f457506105f48133610a88565b6106665760405162461bcd60e51b815260206004820152603e60248201527f4552433732313a20617070726f76652063616c6c6572206973206e6f7420746f60448201527f6b656e206f776e6572206e6f7220617070726f76656420666f7220616c6c00006064820152608401610301565b6106708383610c63565b505050565b61067d611428565b600b60008381526020019081526020016000206040518060a0016040529081600082015481526020016001820180546106b59061182f565b80601f01602080910402602001604051908101604052809291908181526020018280546106e19061182f565b801561072e5780601f106107035761010080835404028352916020019161072e565b820191906000526020600020905b81548152906001019060200180831161071157829003601f168201915b5050509183525050600282015460208201526003820154604082015260048083015460609092019160ff169081111561076957610769611669565b600481111561077a5761077a611669565b90525092915050565b61078d3382610cd1565b6107a95760405162461bcd60e51b815260040161030190611976565b610670838383610d30565b60006107bf8361092d565b82106108215760405162461bcd60e51b815260206004820152602b60248201527f455243373231456e756d657261626c653a206f776e657220696e646578206f7560448201526a74206f6620626f756e647360a81b6064820152608401610301565b506001600160a01b03919091166000908152600660209081526040808320938352929052205490565b610670838383604051806020016040528060008152506109dc565b600061087060085490565b82106108d35760405162461bcd60e51b815260206004820152602c60248201527f455243373231456e756d657261626c653a20676c6f62616c20696e646578206f60448201526b7574206f6620626f756e647360a01b6064820152608401610301565b600882815481106108e6576108e66119c4565b90600052602060002001549050919050565b6000818152600260205260408120546001600160a01b0316806102b65760405162461bcd60e51b8152600401610301906119da565b60006001600160a01b0382166109975760405162461bcd60e51b815260206004820152602960248201527f4552433732313a2061646472657373207a65726f206973206e6f7420612076616044820152683634b21037bbb732b960b91b6064820152608401610301565b506001600160a01b031660009081526003602052604090205490565b6060600180546104b69061182f565b60006102b6826108f8565b6109d8338383610ec5565b5050565b6109e63383610cd1565b610a025760405162461bcd60e51b815260040161030190611976565b610a0e84848484610f8f565b50505050565b6060610a1f82610c3b565b6000610a3660408051602081019091526000815290565b90506000815111610a565760405180602001604052806000815250610a81565b80610a6084610fc2565b604051602001610a71929190611a0c565b6040516020818303038152906040525b9392505050565b6001600160a01b03918216600090815260056020908152604080832093909416825291909152205460ff1690565b80546001019055565b60006001600160e01b031982166380ac58cd60e01b1480610af057506001600160e01b03198216635b5e139f60e01b145b806102b657506301ffc9a760e01b6001600160e01b03198316146102b6565b6001600160a01b038216610b655760405162461bcd60e51b815260206004820181905260248201527f4552433732313a206d696e7420746f20746865207a65726f20616464726573736044820152606401610301565b610b6e816110c2565b15610bba5760405162461bcd60e51b815260206004820152601c60248201527b115490cdcc8c4e881d1bdad95b88185b1c9958591e481b5a5b9d195960221b6044820152606401610301565b610bc6600083836110df565b6001600160a01b0382166000908152600360205260408120805460019290610bef908490611a51565b909155505060008181526002602052604080822080546001600160a01b0319166001600160a01b0386169081179091559051839290600080516020611b9a833981519152908290a45050565b610c44816110c2565b610c605760405162461bcd60e51b8152600401610301906119da565b50565b600081815260046020526040902080546001600160a01b0319166001600160a01b0384169081179091558190610c98826108f8565b6001600160a01b03167f8c5be1e5ebec7d5bd14f71427d1e84f3dd0314c0f7b2291e5b200ac8c7c3b92560405160405180910390a45050565b600080610cdd836108f8565b9050806001600160a01b0316846001600160a01b03161480610d045750610d048185610a88565b80610d285750836001600160a01b0316610d1d84610539565b6001600160a01b0316145b949350505050565b826001600160a01b0316610d43826108f8565b6001600160a01b031614610da75760405162461bcd60e51b815260206004820152602560248201527f4552433732313a207472616e736665722066726f6d20696e636f72726563742060448201526437bbb732b960d91b6064820152608401610301565b6001600160a01b038216610e095760405162461bcd60e51b8152602060048201526024808201527f4552433732313a207472616e7366657220746f20746865207a65726f206164646044820152637265737360e01b6064820152608401610301565b610e148383836110df565b610e1f600082610c63565b6001600160a01b0383166000908152600360205260408120805460019290610e48908490611a69565b90915550506001600160a01b0382166000908152600360205260408120805460019290610e76908490611a51565b909155505060008181526002602052604080822080546001600160a01b0319166001600160a01b038681169182179092559151849391871691600080516020611b9a83398151915291a4505050565b816001600160a01b0316836001600160a01b031603610f225760405162461bcd60e51b815260206004820152601960248201527822a9219b99189d1030b8383937bb32903a379031b0b63632b960391b6044820152606401610301565b6001600160a01b03838116600081815260056020908152604080832094871680845294825291829020805460ff191686151590811790915591519182527f17307eab39ab6107e8899845ad3d59bd9653f200f220920489ca2b5937696c31910160405180910390a3505050565b610f9a848484610d30565b610fa684848484611197565b610a0e5760405162461bcd60e51b815260040161030190611a80565b606081600003610fe95750506040805180820190915260018152600360fc1b602082015290565b8160005b81156110135780610ffd81611ad2565b915061100c9050600a83611b01565b9150610fed565b6000816001600160401b0381111561102d5761102d61149a565b6040519080825280601f01601f191660200182016040528015611057576020820181803683370190505b5090505b8415610d285761106c600183611a69565b9150611079600a86611b15565b611084906030611a51565b60f81b818381518110611099576110996119c4565b60200101906001600160f81b031916908160001a9053506110bb600a86611b01565b945061105b565b6000908152600260205260409020546001600160a01b0316151590565b6001600160a01b03831661113a5761113581600880546000838152600960205260408120829055600182018355919091527ff3f7a9fe364faab93b216da50a3214154f22a0a2b415b23a84c8169e8b636ee30155565b61115d565b816001600160a01b0316836001600160a01b03161461115d5761115d8382611298565b6001600160a01b0382166111745761067081611335565b826001600160a01b0316826001600160a01b0316146106705761067082826113e4565b60006001600160a01b0384163b1561128d57604051630a85bd0160e11b81526001600160a01b0385169063150b7a02906111db903390899088908890600401611b29565b6020604051808303816000875af1925050508015611216575060408051601f3d908101601f1916820190925261121391810190611b66565b60015b611273573d808015611244576040519150601f19603f3d011682016040523d82523d6000602084013e611249565b606091505b50805160000361126b5760405162461bcd60e51b815260040161030190611a80565b805181602001fd5b6001600160e01b031916630a85bd0160e11b149050610d28565b506001949350505050565b600060016112a58461092d565b6112af9190611a69565b600083815260076020526040902054909150808214611302576001600160a01b03841660009081526006602090815260408083208584528252808320548484528184208190558352600790915290208190555b5060009182526007602090815260408084208490556001600160a01b039094168352600681528383209183525290812055565b60085460009061134790600190611a69565b6000838152600960205260408120546008805493945090928490811061136f5761136f6119c4565b906000526020600020015490508060088381548110611390576113906119c4565b60009182526020808320909101929092558281526009909152604080822084905585825281205560088054806113c8576113c8611b83565b6001900381819060005260206000200160009055905550505050565b60006113ef8361092d565b6001600160a01b039093166000908152600660209081526040808320868452825280832085905593825260079052919091209190915550565b6040518060a00160405280600081526020016060815260200160008152602001600081526020016000600481111561146257611462611669565b905290565b6001600160e01b031981168114610c6057600080fd5b60006020828403121561148f57600080fd5b8135610a8181611467565b634e487b7160e01b600052604160045260246000fd5b60006001600160401b03808411156114ca576114ca61149a565b604051601f8501601f19908116603f011681019082821181831017156114f2576114f261149a565b8160405280935085815286868601111561150b57600080fd5b858560208301376000602087830101525050509392505050565b6000806000806080858703121561153b57600080fd5b84356001600160401b0381111561155157600080fd5b8501601f8101871361156257600080fd5b611571878235602084016114b0565b945050602085013592506040850135915060608501356005811061159457600080fd5b939692955090935050565b60005b838110156115ba5781810151838201526020016115a2565b83811115610a0e5750506000910152565b600081518084526115e381602086016020860161159f565b601f01601f19169290920160200192915050565b602081526000610a8160208301846115cb565b60006020828403121561161c57600080fd5b5035919050565b80356001600160a01b038116811461163a57600080fd5b919050565b6000806040838503121561165257600080fd5b61165b83611623565b946020939093013593505050565b634e487b7160e01b600052602160045260246000fd5b60208152815160208201526000602083015160a060408401526116a560c08401826115cb565b905060408401516060840152606084015160808401526080840151600581106116de57634e487b7160e01b600052602160045260246000fd5b60a0939093019290925250919050565b60008060006060848603121561170357600080fd5b61170c84611623565b925061171a60208501611623565b9150604084013590509250925092565b60006020828403121561173c57600080fd5b610a8182611623565b6000806040838503121561175857600080fd5b61176183611623565b91506020830135801515811461177657600080fd5b809150509250929050565b6000806000806080858703121561179757600080fd5b6117a085611623565b93506117ae60208601611623565b92506040850135915060608501356001600160401b038111156117d057600080fd5b8501601f810187136117e157600080fd5b6117f0878235602084016114b0565b91505092959194509250565b6000806040838503121561180f57600080fd5b61181883611623565b915061182660208401611623565b90509250929050565b600181811c9082168061184357607f821691505b60208210810361186357634e487b7160e01b600052602260045260246000fd5b50919050565b601f82111561067057600081815260208120601f850160051c810160208610156118905750805b601f850160051c820191505b818110156118af5782815560010161189c565b505050505050565b81516001600160401b038111156118d0576118d061149a565b6118e4816118de845461182f565b84611869565b602080601f83116001811461191957600084156119015750858301515b600019600386901b1c1916600185901b1785556118af565b600085815260208120601f198616915b8281101561194857888601518255948401946001909101908401611929565b50858210156119665787850151600019600388901b60f8161c191681555b5050505050600190811b01905550565b6020808252602e908201527f4552433732313a2063616c6c6572206973206e6f7420746f6b656e206f776e6560408201526d1c881b9bdc88185c1c1c9bdd995960921b606082015260800190565b634e487b7160e01b600052603260045260246000fd5b602080825260189082015277115490cdcc8c4e881a5b9d985b1a59081d1bdad95b88125160421b604082015260600190565b60008351611a1e81846020880161159f565b835190830190611a3281836020880161159f565b01949350505050565b634e487b7160e01b600052601160045260246000fd5b60008219821115611a6457611a64611a3b565b500190565b600082821015611a7b57611a7b611a3b565b500390565b60208082526032908201527f4552433732313a207472616e7366657220746f206e6f6e20455243373231526560408201527131b2b4bb32b91034b6b83632b6b2b73a32b960711b606082015260800190565b600060018201611ae457611ae4611a3b565b5060010190565b634e487b7160e01b600052601260045260246000fd5b600082611b1057611b10611aeb565b500490565b600082611b2457611b24611aeb565b500690565b6001600160a01b0385811682528416602082015260408101839052608060608201819052600090611b5c908301846115cb565b9695505050505050565b600060208284031215611b7857600080fd5b8151610a8181611467565b634e487b7160e01b600052603160045260246000fdfeddf252ad1be2c89b69c2b068fc378daa952ba7f163c4a11628f55a4df523b3efa2646970667358221220c9f0ec4a530b1d6c84fc25dab9edaa67060b59b6306d4e5de6d7c9105fdcce2564736f6c634300080f0033",
  "immutableReferences": {},
  "source": "// SPDX-License-Identifier: MIT\r\npragma solidity 0.8.15;\r\n\r\nimport \"./external/ERC721Enumerable.sol\";\r\nimport \"./external/Counters.sol\";\r\nimport \"./IPlot.sol\";\r\n\r\ncontract Plot is ERC721Enumerable, IPlot {\r\n    // =============================== Usings =============================================\r\n\r\n    using Counters for Counters.Counter;\r\n\r\n    // =============================== Properties =========================================\r\n\r\n    Counters.Counter private _tokenIds;\r\n    mapping(uint256 => PlotInfo) private _plotIdToInfo;\r\n\r\n    // =============================== Constructors =======================================\r\n\r\n    constructor() ERC721(\"Plot\", \"Plot\") {\r\n        _tokenIds.increment(); // Not accept id 0\r\n    }\r\n\r\n    // =============================== Methods ============================================\r\n\r\n    function addPlot(\r\n        string memory name_,\r\n        uint256 minHeight_,\r\n        uint256 maxHeight_,\r\n        Pesticides pesticide_\r\n    ) external {\r\n        // Check\r\n        require(bytes(name_).length > 0, \"ERROR: Name is blank!\");\r\n        require(minHeight_ > 0, \"ERROR: Minimun flight = 0!\");\r\n        require(maxHeight_ > minHeight_, \"ERROR: Min flight <= max!\");\r\n        // Work\r\n        uint256 newItemId = _tokenIds.current();\r\n        _mint(msg.sender, newItemId);\r\n        _plotIdToInfo[newItemId] = PlotInfo({\r\n            id: newItemId,\r\n            name: name_,\r\n            allowedMinimumFlightHeight: minHeight_,\r\n            allowedMaximumFlightHeight: maxHeight_,\r\n            allowedPesticide: pesticide_\r\n        });\r\n        _tokenIds.increment();\r\n\r\n        emit NewPlotAdded(msg.sender, newItemId);\r\n    }\r\n\r\n    function getPlotOwner(uint256 plotId_) external view returns (address) {\r\n        return ownerOf(plotId_);\r\n    }\r\n\r\n    function getPlotInfo(uint256 plotId_)\r\n        external\r\n        view\r\n        returns (PlotInfo memory)\r\n    {\r\n        return _plotIdToInfo[plotId_];\r\n    }\r\n}\r\n",
  "sourcePath": "C:\\GitHub\\TFE-curso-UNIR-ExpertoBlockchain\\src\\contracts\\Plot.sol",
  "compiler": {
    "name": "solc",
    "version": "0.8.15+commit.e14f2714.Emscripten.clang"
  },
  "schemaVersion": "3.4.7",
  "updatedAt": "2022-07-04T16:01:53.269Z",
  "networkType": "ethereum",
  "devdoc": {
    "kind": "dev",
    "methods": {
      "approve(address,uint256)": {
        "details": "See {IERC721-approve}."
      },
      "balanceOf(address)": {
        "details": "See {IERC721-balanceOf}."
      },
      "getApproved(uint256)": {
        "details": "See {IERC721-getApproved}."
      },
      "isApprovedForAll(address,address)": {
        "details": "See {IERC721-isApprovedForAll}."
      },
      "name()": {
        "details": "See {IERC721Metadata-name}."
      },
      "ownerOf(uint256)": {
        "details": "See {IERC721-ownerOf}."
      },
      "safeTransferFrom(address,address,uint256)": {
        "details": "See {IERC721-safeTransferFrom}."
      },
      "safeTransferFrom(address,address,uint256,bytes)": {
        "details": "See {IERC721-safeTransferFrom}."
      },
      "setApprovalForAll(address,bool)": {
        "details": "See {IERC721-setApprovalForAll}."
      },
      "supportsInterface(bytes4)": {
        "details": "See {IERC165-supportsInterface}."
      },
      "symbol()": {
        "details": "See {IERC721Metadata-symbol}."
      },
      "tokenByIndex(uint256)": {
        "details": "See {IERC721Enumerable-tokenByIndex}."
      },
      "tokenOfOwnerByIndex(address,uint256)": {
        "details": "See {IERC721Enumerable-tokenOfOwnerByIndex}."
      },
      "tokenURI(uint256)": {
        "details": "See {IERC721Metadata-tokenURI}."
      },
      "totalSupply()": {
        "details": "See {IERC721Enumerable-totalSupply}."
      },
      "transferFrom(address,address,uint256)": {
        "details": "See {IERC721-transferFrom}."
      }
    },
    "version": 1
  },
  "userdoc": {
    "kind": "user",
    "methods": {},
    "version": 1
  }
}