{
  "contractName": "Works",
  "abi": [
    {
      "inputs": [
        {
          "internalType": "address",
          "name": "plotContractAddress_",
          "type": "address"
        },
        {
          "internalType": "address",
          "name": "dronContractAddress_",
          "type": "address"
        },
        {
          "internalType": "address",
          "name": "fumigationDronTokenAddress_",
          "type": "address"
        }
      ],
      "stateMutability": "nonpayable",
      "type": "constructor"
    },
    {
      "anonymous": false,
      "inputs": [
        {
          "indexed": false,
          "internalType": "uint256",
          "name": "plotId_",
          "type": "uint256"
        },
        {
          "indexed": false,
          "internalType": "uint256",
          "name": "dronId_",
          "type": "uint256"
        },
        {
          "indexed": false,
          "internalType": "uint256",
          "name": "tokensToPay_",
          "type": "uint256"
        }
      ],
      "name": "NewWorkAdded",
      "type": "event"
    },
    {
      "anonymous": false,
      "inputs": [
        {
          "indexed": false,
          "internalType": "uint256",
          "name": "plotId_",
          "type": "uint256"
        },
        {
          "indexed": false,
          "internalType": "uint256",
          "name": "dronId_",
          "type": "uint256"
        },
        {
          "indexed": false,
          "internalType": "uint256",
          "name": "tokensPayed_",
          "type": "uint256"
        }
      ],
      "name": "PlotAlreadyFumigated",
      "type": "event"
    },
    {
      "inputs": [],
      "name": "dronContract",
      "outputs": [
        {
          "internalType": "contract Dron",
          "name": "",
          "type": "address"
        }
      ],
      "stateMutability": "view",
      "type": "function",
      "constant": true
    },
    {
      "inputs": [],
      "name": "plotContract",
      "outputs": [
        {
          "internalType": "contract Plot",
          "name": "",
          "type": "address"
        }
      ],
      "stateMutability": "view",
      "type": "function",
      "constant": true
    },
    {
      "inputs": [],
      "name": "token",
      "outputs": [
        {
          "internalType": "contract FumigationDronToken",
          "name": "",
          "type": "address"
        }
      ],
      "stateMutability": "view",
      "type": "function",
      "constant": true
    },
    {
      "inputs": [
        {
          "internalType": "uint256",
          "name": "plotId_",
          "type": "uint256"
        },
        {
          "internalType": "uint256",
          "name": "dronId_",
          "type": "uint256"
        }
      ],
      "name": "addWork",
      "outputs": [],
      "stateMutability": "nonpayable",
      "type": "function"
    },
    {
      "inputs": [
        {
          "internalType": "address",
          "name": "managerFirm_",
          "type": "address"
        }
      ],
      "name": "getNotFinishedWorks",
      "outputs": [
        {
          "internalType": "uint256[]",
          "name": "",
          "type": "uint256[]"
        }
      ],
      "stateMutability": "view",
      "type": "function",
      "constant": true
    },
    {
      "inputs": [
        {
          "internalType": "uint256",
          "name": "workId_",
          "type": "uint256"
        }
      ],
      "name": "doFumigationWork",
      "outputs": [],
      "stateMutability": "nonpayable",
      "type": "function"
    },
    {
      "inputs": [],
      "name": "balanceTokens",
      "outputs": [
        {
          "internalType": "uint256",
          "name": "",
          "type": "uint256"
        }
      ],
      "stateMutability": "view",
      "type": "function",
      "constant": true
    },
    {
      "inputs": [
        {
          "internalType": "uint256",
          "name": "workId_",
          "type": "uint256"
        }
      ],
      "name": "getWorkInfo",
      "outputs": [
        {
          "components": [
            {
              "internalType": "uint256",
              "name": "id",
              "type": "uint256"
            },
            {
              "internalType": "uint256",
              "name": "plotId",
              "type": "uint256"
            },
            {
              "internalType": "uint256",
              "name": "dronId",
              "type": "uint256"
            },
            {
              "internalType": "uint256",
              "name": "tokensToPay",
              "type": "uint256"
            },
            {
              "internalType": "uint256",
              "name": "timestampCreate",
              "type": "uint256"
            },
            {
              "internalType": "uint256",
              "name": "timestampWorkFinished",
              "type": "uint256"
            },
            {
              "internalType": "bool",
              "name": "payed",
              "type": "bool"
            }
          ],
          "internalType": "struct IWorks.WorkInfo",
          "name": "",
          "type": "tuple"
        }
      ],
      "stateMutability": "view",
      "type": "function",
      "constant": true
    }
  ],
  "bytecode": "0x60e06040523480156200001157600080fd5b506040516200150738038062001507833981016040819052620000349162000094565b6001600160a01b0383811660805282811660a052811660c0526200006560006200006e602090811b62000de817901c565b505050620000de565b80546001019055565b80516001600160a01b03811681146200008f57600080fd5b919050565b600080600060608486031215620000aa57600080fd5b620000b58462000077565b9250620000c56020850162000077565b9150620000d56040850162000077565b90509250925092565b60805160a05160c0516113b562000152600039600081816101af015281816104f601528181610c040152610d6d01526000818160bf015281816102b4015281816104470152818161075c015281816108460152610b380152600081816082015281816105f501526108e001526113b56000f3fe608060405234801561001057600080fd5b50600436106100785760003560e01c8063027caeed1461007d578063232e3ef1146100ba57806335ee21b5146100e157806378f85024146101015780639d692da114610116578063a01275d414610129578063e4494a0f14610194578063fc0c546a146101aa575b600080fd5b6100a47f000000000000000000000000000000000000000000000000000000000000000081565b6040516100b19190610f4b565b60405180910390f35b6100a47f000000000000000000000000000000000000000000000000000000000000000081565b6100f46100ef366004610f77565b6101d1565b6040516100b19190610f9b565b61011461010f366004610fdf565b61023d565b005b610114610124366004610ff8565b6105d2565b61013c610137366004610fdf565b610caa565b6040516100b19190600060e082019050825182526020830151602083015260408301516040830152606083015160608301526080830151608083015260a083015160a083015260c0830151151560c083015292915050565b61019c610d53565b6040519081526020016100b1565b6100a47f000000000000000000000000000000000000000000000000000000000000000081565b6001600160a01b03811660009081526002602090815260409182902080548351818402810184019094528084526060939283018282801561023157602002820191906000526020600020905b81548152602001906001019080831161021d575b50505050509050919050565b6000818152600160208181526040808420815160e0810183528154815293810154928401929092526002820154838201819052600383015460608501526004808401546080860152600584015460a086015260069093015460ff16151560c0850152905163062b26ef60e51b8152918201528392907f00000000000000000000000000000000000000000000000000000000000000006001600160a01b03169063c564dde090602401602060405180830381865afa158015610303573d6000803e3d6000fd5b505050506040513d601f19601f82011682018060405250810190610327919061101a565b90506001600160a01b03811633146103835760405162461bcd60e51b815260206004820152601a6024820152794552524f523a206f6e6c79206f776e6572206f662064726f6e2160301b60448201526064015b60405180910390fd5b6000848152600160205260409020805485146103d55760405162461bcd60e51b81526020600482015260116024820152704552524f523a204e6f742065786973742160781b604482015260640161037a565b600681015460ff16156104225760405162461bcd60e51b81526020600482015260156024820152744552524f523a20416c72656164792070617965642160581b604482015260640161037a565b426005820155600281015460405163062b26ef60e51b81526000916001600160a01b037f0000000000000000000000000000000000000000000000000000000000000000169163c564dde09161047e9160040190815260200190565b602060405180830381865afa15801561049b573d6000803e3d6000fd5b505050506040513d601f19601f820116820180604052508101906104bf919061101a565b90506104cb8682610df1565b60068201805460ff19166001179055600382015460405163a9059cbb60e01b81526001600160a01b037f0000000000000000000000000000000000000000000000000000000000000000169163a9059cbb9161053f9185916004016001600160a01b03929092168252602082015260400190565b6020604051808303816000875af115801561055e573d6000803e3d6000fd5b505050506040513d601f19601f820116820180604052508101906105829190611037565b507f7bfe14f707c3f9db8a2f1ee5edcc2da5ba0cee964a490f3e1a6ef7bde38d60548260010154836002015484600301546040516105c293929190611059565b60405180910390a1505050505050565b6040516350fa2eeb60e11b81526004810183905282906000906001600160a01b037f0000000000000000000000000000000000000000000000000000000000000000169063a1f45dd690602401602060405180830381865afa15801561063c573d6000803e3d6000fd5b505050506040513d601f19601f82011682018060405250810190610660919061101a565b90506001600160a01b03811633146106b75760405162461bcd60e51b815260206004820152601a6024820152794552524f523a206f6e6c79206f776e6572206f6620706c6f742160301b604482015260640161037a565b600084116106fd5760405162461bcd60e51b81526020600482015260136024820152724552524f523a20706c6f74206964203d20302160681b604482015260640161037a565b600083116107435760405162461bcd60e51b81526020600482015260136024820152724552524f523a2064726f6e206964203d20302160681b604482015260640161037a565b60405163987c065160e01b8152600481018490526000907f00000000000000000000000000000000000000000000000000000000000000006001600160a01b03169063987c065190602401602060405180830381865afa1580156107ab573d6000803e3d6000fd5b505050506040513d601f19601f820116820180604052508101906107cf9190611037565b90508061082a5760405162461bcd60e51b8152602060048201526024808201527f4552524f523a2064726f6e2077697468207468697320696420646f6e277420656044820152631e1a5cdd60e21b606482015260840161037a565b60405160016206639b60e31b03198152600481018590526000907f00000000000000000000000000000000000000000000000000000000000000006001600160a01b03169063ffcce32890602401600060405180830381865afa158015610895573d6000803e3d6000fd5b505050506040513d6000823e601f3d908101601f191682016040526108bd919081019061119e565b60405162ed94d160e51b8152600481018890529091506000906001600160a01b037f00000000000000000000000000000000000000000000000000000000000000001690631db29a2090602401600060405180830381865afa158015610927573d6000803e3d6000fd5b505050506040513d6000823e601f3d908101601f1916820160405261094f9190810190611243565b90508060600151826060015110156109b35760405162461bcd60e51b815260206004820152602160248201527f4552524f523a20546865206d696e696d756d20666c69676874206865696768746044820152602160f81b606482015260840161037a565b806040015182604001511115610a155760405162461bcd60e51b815260206004820152602160248201527f4552524f523a20546865206d6178696d756d20666c69676874206865696768746044820152602160f81b606482015260840161037a565b80608001516004811115610a2b57610a2b6112de565b8260a001516004811115610a4157610a416112de565b14610a8e5760405162461bcd60e51b815260206004820152601d60248201527f4552524f523a205468652074797065206f662070657374696369646521000000604482015260640161037a565b600080546040805160e08101825282815260208082018c81528284018c81526080898101516060860190815242918601918252600060a0870181815260c088018281528a835260019788905298822097518855945187870155925160028701555160038601555160048501559051600584015592516006909201805460ff1916921515929092179091558154019055905060405163062b26ef60e51b8152600481018890526000907f00000000000000000000000000000000000000000000000000000000000000006001600160a01b03169063c564dde090602401602060405180830381865afa158015610b87573d6000803e3d6000fd5b505050506040513d601f19601f82011682018060405250810190610bab919061101a565b6001600160a01b03818116600090815260026020908152604080832080546001810182559084529190922001859055608087015190516315e654bf60e21b815233600482015230602482015260448101919091529192507f0000000000000000000000000000000000000000000000000000000000000000169063579952fc90606401600060405180830381600087803b158015610c4857600080fd5b505af1158015610c5c573d6000803e3d6000fd5b505050507fd7f034bd5447c4b4e67c9b5a9bd873e97a23f834986ccfa9d82e6aeca1ca501489898660800151604051610c9793929190611059565b60405180910390a1505050505050505050565b610cec6040518060e001604052806000815260200160008152602001600081526020016000815260200160008152602001600081526020016000151581525090565b50600090815260016020818152604092839020835160e0810185528154815292810154918301919091526002810154928201929092526003820154606082015260048201546080820152600582015460a082015260069091015460ff16151560c082015290565b6040516370a0823160e01b81526000906001600160a01b037f000000000000000000000000000000000000000000000000000000000000000016906370a0823190610da2903090600401610f4b565b602060405180830381865afa158015610dbf573d6000803e3d6000fd5b505050506040513d601f19601f82011682018060405250810190610de391906112f4565b905090565b80546001019055565b6001600160a01b0381166000908152600260205260409020805415610eeb57600080610e6c8584805480602002602001604051908101604052809291908181526020018280548015610e6257602002820191906000526020600020905b815481526020019060010190808311610e4e575b5050505050610ef0565b915091508115610ee85782548390610e8690600190611323565b81548110610e9657610e9661133a565b9060005260206000200154838281548110610eb357610eb361133a565b906000526020600020018190555082805480610ed157610ed1611350565b600190038181906000526020600020016000905590555b50505b505050565b60008060008060005b8551811015610f405786868281518110610f1557610f1561133a565b602002602001015103610f2e5760019150809250610f40565b80610f3881611366565b915050610ef9565b509590945092505050565b6001600160a01b0391909116815260200190565b6001600160a01b0381168114610f7457600080fd5b50565b600060208284031215610f8957600080fd5b8135610f9481610f5f565b9392505050565b6020808252825182820181905260009190848201906040850190845b81811015610fd357835183529284019291840191600101610fb7565b50909695505050505050565b600060208284031215610ff157600080fd5b5035919050565b6000806040838503121561100b57600080fd5b50508035926020909101359150565b60006020828403121561102c57600080fd5b8151610f9481610f5f565b60006020828403121561104957600080fd5b81518015158114610f9457600080fd5b9283526020830191909152604082015260600190565b634e487b7160e01b600052604160045260246000fd5b60405160c081016001600160401b03811182821017156110a7576110a761106f565b60405290565b60405160a081016001600160401b03811182821017156110a7576110a761106f565b604051601f8201601f191681016001600160401b03811182821017156110f7576110f761106f565b604052919050565b600082601f83011261111057600080fd5b81516001600160401b038111156111295761112961106f565b602061113d601f8301601f191682016110cf565b828152858284870101111561115157600080fd5b60005b8381101561116f578581018301518282018401528201611154565b838111156111805760008385840101525b5095945050505050565b80516005811061119957600080fd5b919050565b6000602082840312156111b057600080fd5b81516001600160401b03808211156111c757600080fd5b9083019060c082860312156111db57600080fd5b6111e3611085565b825181526020830151828111156111f957600080fd5b611205878286016110ff565b60208301525060408301516040820152606083015160608201526080830151608082015261123560a0840161118a565b60a082015295945050505050565b60006020828403121561125557600080fd5b81516001600160401b038082111561126c57600080fd5b9083019060a0828603121561128057600080fd5b6112886110ad565b8251815260208301518281111561129e57600080fd5b6112aa878286016110ff565b60208301525060408301516040820152606083015160608201526112d06080840161118a565b608082015295945050505050565b634e487b7160e01b600052602160045260246000fd5b60006020828403121561130657600080fd5b5051919050565b634e487b7160e01b600052601160045260246000fd5b6000828210156113355761133561130d565b500390565b634e487b7160e01b600052603260045260246000fd5b634e487b7160e01b600052603160045260246000fd5b6000600182016113785761137861130d565b506001019056fea264697066735822122000ec51a416e4058346b4880050d1f5ddbc986736dadf25fe0623a91fdd722a8464736f6c634300080f0033",
  "immutableReferences": {
    "849": [
      {
        "length": 32,
        "start": 130
      },
      {
        "length": 32,
        "start": 1525
      },
      {
        "length": 32,
        "start": 2272
      }
    ],
    "852": [
      {
        "length": 32,
        "start": 191
      },
      {
        "length": 32,
        "start": 692
      },
      {
        "length": 32,
        "start": 1095
      },
      {
        "length": 32,
        "start": 1884
      },
      {
        "length": 32,
        "start": 2118
      },
      {
        "length": 32,
        "start": 2872
      }
    ],
    "855": [
      {
        "length": 32,
        "start": 431
      },
      {
        "length": 32,
        "start": 1270
      },
      {
        "length": 32,
        "start": 3076
      },
      {
        "length": 32,
        "start": 3437
      }
    ]
  },
  "source": "// SPDX-License-Identifier: MIT\r\npragma solidity 0.8.15;\r\n\r\nimport \"./external/Counters.sol\";\r\nimport \"./Dron.sol\";\r\nimport \"./Plot.sol\";\r\nimport \"./FumigationDronToken.sol\";\r\nimport \"./IWorks.sol\";\r\n\r\ncontract Works is IWorks {\r\n    // =============================== Usings =============================================\r\n\r\n    using Counters for Counters.Counter;\r\n\r\n    // =============================== Properties =========================================\r\n\r\n    Counters.Counter private _workIds;\r\n    mapping(uint256 => WorkInfo) private _workIdToInfo;\r\n    Plot public immutable plotContract;\r\n    Dron public immutable dronContract;\r\n    FumigationDronToken public immutable token;\r\n    // Key - manager firm wallet, value - list of work id's pending to do\r\n    mapping(address => uint256[]) private _notFinishedWorks;\r\n\r\n    // =============================== Constructors =======================================\r\n\r\n    constructor(\r\n        address plotContractAddress_,\r\n        address dronContractAddress_,\r\n        address fumigationDronTokenAddress_\r\n    ) {\r\n        plotContract = Plot(plotContractAddress_);\r\n        dronContract = Dron(dronContractAddress_);\r\n        token = FumigationDronToken(fumigationDronTokenAddress_);\r\n        _workIds.increment(); // Not accept 0 id\r\n    }\r\n\r\n    // =============================== Modifiers ==========================================\r\n\r\n    modifier onlyPlotOwner(uint256 plotId_) {\r\n        address plotOwner = plotContract.getPlotOwner(plotId_);\r\n        require(plotOwner == msg.sender, \"ERROR: only owner of plot!\");\r\n        _;\r\n    }\r\n\r\n    modifier onlyDronOwner(uint256 workId_) {\r\n        WorkInfo memory work = _workIdToInfo[workId_];\r\n        address dronOwner = dronContract.getDronOwner(work.dronId);\r\n        require(dronOwner == msg.sender, \"ERROR: only owner of dron!\");\r\n        _;\r\n    }\r\n\r\n    // =============================== Methods ============================================\r\n\r\n    function addWork(uint256 plotId_, uint256 dronId_)\r\n        external\r\n        onlyPlotOwner(plotId_)\r\n    {\r\n        // Check input data\r\n        require(plotId_ > 0, \"ERROR: plot id = 0!\");\r\n        require(dronId_ > 0, \"ERROR: dron id = 0!\");\r\n        bool dronExist = dronContract.checkDronExist(dronId_);\r\n        require(dronExist, \"ERROR: dron with this id don't exist\");\r\n        // Check hight min/max plot and dron, if is compatibility for work\r\n        IDron.DronInfo memory dron = dronContract.getDronInfo(dronId_);\r\n        IPlot.PlotInfo memory plot = plotContract.getPlotInfo(plotId_);\r\n        require(\r\n            dron.maximumFlightHeight >= plot.allowedMinimumFlightHeight,\r\n            \"ERROR: The minimum flight height!\"\r\n        );\r\n        require(\r\n            dron.minimumFlightHeight <= plot.allowedMaximumFlightHeight,\r\n            \"ERROR: The maximum flight height!\"\r\n        );\r\n        require(\r\n            dron.pesticide == plot.allowedPesticide,\r\n            \"ERROR: The type of pesticide!\"\r\n        );\r\n\r\n        // Create new work\r\n        uint256 newItemId = _workIds.current();\r\n        _workIdToInfo[newItemId] = WorkInfo({\r\n            id: newItemId,\r\n            plotId: plotId_,\r\n            dronId: dronId_,\r\n            tokensToPay: dron.price,\r\n            timestampCreate: block.timestamp,\r\n            timestampWorkFinished: 0,\r\n            payed: false\r\n        });\r\n        _workIds.increment();\r\n        address dronManagerFirm = dronContract.getDronOwner(dronId_);\r\n        _notFinishedWorks[dronManagerFirm].push(newItemId);\r\n\r\n        // Transfer tokens from plot owner to contract like block tokens to pay to dron owner\r\n        token.transferFromTo(msg.sender, address(this), dron.price);\r\n\r\n        emit NewWorkAdded(plotId_, dronId_, dron.price);\r\n    }\r\n\r\n    function getNotFinishedWorks(address managerFirm_)\r\n        external\r\n        view\r\n        returns (uint256[] memory)\r\n    {\r\n        return _notFinishedWorks[managerFirm_];\r\n    }\r\n\r\n    function _getWorkIndexFromArray(uint256 workId_, uint256[] memory list_)\r\n        internal\r\n        pure\r\n        returns (bool, uint256)\r\n    {\r\n        uint256 workIndex = 0;\r\n        bool exist = false;\r\n        for (uint256 i = 0; i < list_.length; i++) {\r\n            if (list_[i] == workId_) {\r\n                exist = true;\r\n                workIndex = i;\r\n                break;\r\n            }\r\n        }\r\n        return (exist, workIndex);\r\n    }\r\n\r\n    function _removeWorkFromNotFinished(uint256 workId_, address managerFirm)\r\n        internal\r\n    {\r\n        uint256[] storage works = _notFinishedWorks[managerFirm];\r\n        if (works.length > 0) {\r\n            (bool exist, uint256 workIndex) = _getWorkIndexFromArray(\r\n                workId_,\r\n                works\r\n            );\r\n            if (exist) {\r\n                works[workIndex] = works[works.length - 1];\r\n                works.pop();\r\n            }\r\n        }\r\n    }\r\n\r\n    function doFumigationWork(uint256 workId_) external onlyDronOwner(workId_) {\r\n        // Check input data\r\n        WorkInfo storage work = _workIdToInfo[workId_];\r\n        require(work.id == workId_, \"ERROR: Not exist!\");\r\n        require(work.payed == false, \"ERROR: Already payed!\");\r\n        // Set work is finished\r\n        work.timestampWorkFinished = block.timestamp;\r\n        address dronManagerFirm = dronContract.getDronOwner(work.dronId);\r\n        _removeWorkFromNotFinished(workId_, dronManagerFirm);\r\n        // Pay for work\r\n        work.payed = true;\r\n        token.transfer(dronManagerFirm, work.tokensToPay);\r\n        // Emit event\r\n        emit PlotAlreadyFumigated(work.plotId, work.dronId, work.tokensToPay);\r\n    }\r\n\r\n    function balanceTokens() external view returns (uint256) {\r\n        return token.balanceOf(address(this));\r\n    }\r\n\r\n    function getWorkInfo(uint256 workId_)\r\n        external\r\n        view\r\n        returns (WorkInfo memory)\r\n    {\r\n        return _workIdToInfo[workId_];\r\n    }\r\n}\r\n",
  "sourcePath": "C:\\GitHub\\TFE-curso-UNIR-ExpertoBlockchain\\src\\contracts\\Works.sol",
  "compiler": {
    "name": "solc",
    "version": "0.8.15+commit.e14f2714.Emscripten.clang"
  },
  "schemaVersion": "3.4.7",
  "updatedAt": "2022-07-04T16:01:53.341Z",
  "networkType": "ethereum",
  "devdoc": {
    "kind": "dev",
    "methods": {},
    "version": 1
  },
  "userdoc": {
    "kind": "user",
    "methods": {},
    "version": 1
  }
}